:100000000C943C010C946D010C946D010C946D01E9
:100010000C946D010C946D010C946D010C946D01A8
:100020000C946D010C946D010C946D010C946D0198
:100030000C946D010C946D010C946D010C946D0188
:100040000C946D010C946D010C946D010C946D0178
:100050000C946D010C946D010C946D010C94B7011E
:100060000C946D010C948E030C94C4030C946D01DC
:100070000C946D010C946D010C946D010C946D0148
:100080000C946D010C946D010C946D010C946D0138
:100090000C946D010C946D010C946D010C946D0128
:1000A0000C946D010C946D010C946D010C946D0118
:1000B0000C946D010C946D010C946D010C946D0108
:1000C0000C946D010C946D010C946D010C946D01F8
:1000D0000C946D010C946D010C946D010C946D01E8
:1000E0000C946D01E402E702D602DA02E0021E037C
:1000F000EB02EF02F502F902FD02030307030B0313
:100100001E031103150319030C94D6020C9411035A
:100110000C9419030C9403030C941E030C94EB022F
:100120000C94FF040C94F9020C94EE030C94F50269
:100130000C94EF020C948D040C947F040C940B032C
:100140000C9415030C9474040C94E0020C94A10418
:100150000C94E7020C9407030C94DA020C944B0401
:100160000C9421050C94FD020C94F8030C94E40209
:1001700000000A0B02090C0D0E0807030401000021
:10018000000000000000000000000000000000006F
:10019000000000000000000000000000121110002C
:1001A000000000000000000000000000000000004F
:1001B000000000000000010210202008081020406C
:1001C000102040800201020108040201010204081B
:1001D00010204080804020100804020180040201A9
:1001E00080402010080402010804020101020408F2
:1001F00010204080010204081020408005050505FC
:10020000070508080808020202020A0A080804048E
:1002100004040101010101010101030303030303BC
:100220000303040707070C0C0C0C0C0C0C0C02024B
:10023000020206060606060606060B0B0B0B0B0B48
:100240000B0B00002200250028002B002E0031009F
:10025000340002010000050108010B01000021002B
:10026000240027002A002D00300033000101000087
:10027000040107010A01F80311241FBECFEFD1E2E8
:10028000DEBFCDBF00E00CBF12E0A0E0B2E0E4E2D0
:10029000FBE000E00BBF02C007900D92A631B10752
:1002A000D9F722E0A6E1B2E001C01D92AC3BB20753
:1002B000E1F712E0C8E7D2E000E006C022970109AA
:1002C000FE010BBF0E948C05C637D10780E00807EE
:1002D000A9F70E943C040C9490050C94000061E086
:1002E00088E20E941F0361E08AE20C941F03CF930F
:1002F000DF9361E08AE20E945803C8ECD0E061E03D
:1003000088E20E94580384EF91E00E945E0260E060
:1003100088E20E94580384EF91E00E945E022197D8
:1003200071F768EE73E080E090E00E94240260E0E4
:100330008AE20E945803C0E9D1E061E088E20E94AD
:10034000580384EF91E00E945E0260E088E20E9420
:10035000580384EF91E00E945E02219771F768EEE6
:1003600073E080E090E0DF91CF910C9424021F9223
:100370000F920FB60F9211242F933F938F939F9359
:10038000AF93BF938091170290911802A091190228
:10039000B0911A023091160223E0230F2D3720F47A
:1003A0000196A11DB11D05C026E8230F0296A11DCF
:1003B000B11D209316028093170290931802A09308
:1003C0001902B0931A0280911B0290911C02A09115
:1003D0001D02B0911E020196A11DB11D80931B024A
:1003E00090931C02A0931D02B0931E02BF91AF9187
:1003F0009F918F913F912F910F900FBE0F901F9063
:1004000018953FB7F89480911B0290911C02A0911F
:100410001D02B0911E0226B5A89B05C02F3F19F002
:100420000196A11DB11D3FBF6627782F892F9A2FF6
:10043000620F711D811D911D42E0660F771F881F9D
:10044000991F4A95D1F708958F929F92AF92BF92CC
:10045000CF92DF92EF92FF926B017C010E9401022A
:100460004B015C01C114D104E104F104F1F00E94DC
:1004700073040E940102681979098A099B09683E80
:1004800073408105910570F321E0C21AD108E1089B
:10049000F10888EE880E83E0981EA11CB11CC114DF
:1004A000D104E104F10429F7DDCFFF90EF90DF9054
:1004B000CF90BF90AF909F908F900895823091051C
:1004C00038F0880F991F880F991F05970197F1F74A
:1004D0000895789484B5826084BD84B5816084BDBC
:1004E00085B5826085BD85B5816085BDEEE6F0E0AD
:1004F000808181608083E1E8F0E010828081826009
:100500008083808181608083E0E8F0E08081816089
:100510008083E1EBF0E0808184608083E0EBF0E0B9
:10052000808181608083E1E9F0E080818260808366
:10053000808181608083E0E9F0E080818160808358
:10054000E1EAF0E080818260808380818160808345
:10055000E0EAF0E0808181608083E1E2F1E0808187
:1005600082608083808181608083E0E2F1E080812D
:1005700081608083EAE7F0E080818460808380810D
:1005800082608083808181608083808180688083B5
:100590001092C100089590E0FC013197E231F1051D
:1005A00008F04CC0EE58FF4F0C94860580918000F7
:1005B0008F7703C0809180008F7D809380000895A5
:1005C00080918000877FF9CF84B58F7702C084B592
:1005D0008F7D84BD08958091B0008F7703C0809196
:1005E000B0008F7D8093B0000895809190008F7748
:1005F00007C0809190008F7D03C080919000877F1D
:100600008093900008958091A0008F7707C080911B
:10061000A0008F7D03C08091A000877F8093A00001
:100620000895809120018F7707C0809120018F7DF0
:1006300003C080912001877F809320010895CF938C
:10064000DF9390E0FC01EA54FE4F2491FC01E4505A
:10065000FE4F8491882349F190E0880F991FFC0197
:10066000E45AFD4FA591B4918E5B9D4FFC01C5915D
:10067000D4919FB7611108C0F8948C912095822382
:100680008C93888182230AC0623051F4F8948C9153
:10069000322F309583238C938881822B888304C0EA
:1006A000F8948C91822B8C939FBFDF91CF9108950A
:1006B0000F931F93CF93DF931F92CDB7DEB7282FF1
:1006C00030E0F901E059FE4F8491F901EA54FE4F00
:1006D0001491F901E450FE4F04910023C9F08823DE
:1006E00021F069830E94CB026981E02FF0E0EE0FD8
:1006F000FF1FEE5BFD4FA591B4919FB7F8948C91CD
:10070000611103C01095812301C0812B8C939FBF81
:100710000F90DF91CF911F910F9108951F920F922B
:100720000FB60F9211240BB60F922F938F939F93B6
:10073000EF93FF93E0912F02F09130028081E091DE
:100740003502F091360282FD12C09081809138020C
:100750008F5F8F7320913902821751F0E091380238
:10076000F0E0E15EFD4F958F8093380201C08081FB
:10077000FF91EF919F918F912F910F900BBE0F9052
:100780000FBE0F901F9018951F920F920FB60F92E9
:1007900011240BB60F922F933F934F935F936F9358
:1007A0007F938F939F93AF93BF93EF93FF938FE1CB
:1007B00092E00E94DE04FF91EF91BF91AF919F9173
:1007C0008F917F916F915F914F913F912F910F90FA
:1007D0000BBE0F900FBE0F901F9018958FE192E007
:1007E0000E94740421E0892B09F420E0822F0895EF
:1007F000109222021092210288EE93E0A0E0B0E075
:100800008093230290932402A0932502B0932602A2
:100810008AE092E09093200280931F0285EC90E0A2
:1008200090932C0280932B0284EC90E090932E0204
:1008300080932D0280EC90E09093300280932F0201
:1008400081EC90E0909332028093310282EC90E050
:10085000909334028093330286EC90E090933602BA
:1008600080933502109238021092390210923A02A7
:1008700010923B02089508950E9469020E943B0471
:100880000E946F01C1EAD4E00E9477012097E1F352
:100890000E94A104F9CFCF92DF92EF92FF920F93C3
:1008A0001F93CF93DF937C016A01EB0100E010E01E
:1008B0000C151D0571F06991D701ED91FC91019026
:1008C000F081E02DC7011995892B19F00F5F1F4F9B
:1008D000EFCFC801DF91CF911F910F91FF90EF9063
:1008E000DF90CF9008950895FC01818D228D90E0D6
:1008F000805C9F4F821B91098F7399270895FC019B
:10090000918D828D981731F0828DE80FF11D858DC4
:1009100090E008958FEF9FEF0895FC01918D828DF7
:10092000981761F0828DDF01A80FB11D5D968C9143
:10093000928D9F5F9F73928F90E008958FEF9FEF4E
:1009400008958EEE93E0892B41F080E090E0892BB2
:1009500021F00E94EE03811125C080E090E0892BF8
:1009600041F080E090E0892B21F00E94000081118D
:100970001CC080E090E0892B41F080E090E0892B62
:1009800021F00E940000811113C080E090E0892BCB
:10099000A1F080E090E0892B81F00E94000081119D
:1009A0000AC008950E940000D8CF0E940000E1CF45
:1009B0000E940000EACF0C9400000895FC01848D91
:1009C000DF01A80FB11DA35ABF4F2C91848D90E079
:1009D00001968F739927848FA689B7892C93A08954
:1009E000B1898C9180648C93938D848D981306C00B
:1009F0000288F389E02D80818F7D80830895CF93D5
:100A0000DF93EC01888D8823C9F0EA89FB89808116
:100A100085FD05C0A889B9898C9186FD0FC00FB6E8
:100A200007FCF5CF808185FFF2CFA889B9898C9129
:100A300085FFEDCFCE010E94DE04E7CFDF91CF919D
:100A40000895CF92DF92FF920F931F93CF93DF937E
:100A50001F92CDB7DEB76C0181E0D60158968C931A
:100A600058975B969C915B975C968C915C979813DA
:100A700007C05096ED91FC915197808185FD2EC065
:100A8000F601038D10E00F5F1F4F0F731127F02E3B
:100A9000F601848DF81211C00FB607FCF9CFD6010C
:100AA0005096ED91FC915197808185FFF1CFC60161
:100AB00069830E94DE046981EBCF838DE80FF11D0D
:100AC000E35AFF4F6083D6015B960C935B97529677
:100AD000ED91FC915397808180620CC0D6015696AF
:100AE000ED91FC91579760835096ED91FC91519751
:100AF00080818064808381E090E00F90DF91CF91CE
:100B00001F910F91FF90DF90CF900895EE0FFF1F80
:100B10000590F491E02D19940790F691E02D199429
:040B2000F894FFCF77
:100B24000000BC0280000000000021054B04740496
:060B34008D047F04FF04A4
:00000001FF
