:100000000C9481010C94030D0C942E0D0C94590D3D
:100010000C94840D0C94AF0D0C94DA0D0C94050E19
:100020000C94300E0C94B5090C94B5090C94B509D8
:100030000C94B2010C94B2010C94B2010C94B20174
:100040000C94B2010C949E030C94B2010C94B20176
:100050000C94B2010C94B2010C94B2010C945B0E9E
:100060000C94B2010C94BD110C94F3110C94B201D8
:100070000C94B2010C94B2010C94B2010C94B20134
:100080000C94CC030C94B2010C94B2010C946E0B42
:100090000C94B2010C94B2010C94B2010C94B20114
:1000A0000C94B2010C94B2010C94FA030C94B201BA
:1000B0000C94B2010C94B2010C94B2010C9428047B
:1000C0000C94B2010C94B2010C94B2010C94B201E4
:1000D0000C94B2010C94B2010C94B2010C94B201D4
:1000E0000C94B201B60C800C880C940CA10CC20CC0
:1000F000CF0CF30CE90CEB0CED0CEF0CF50CF70C42
:10010000760F790F680F6C0F720FB00F7D0F810F94
:10011000870F8B0F8F0F950F990F9D0FB00FA30FA8
:10012000A70FAB0F0C94D0080C9454100C94990F9B
:100130000C945E090C94F1080C94A70F0C946A0CB3
:100140000C94720F0C94C20C0C947D0F0C94B60C92
:100150000C94E90C0C94800C0C94940C0C94D4101A
:100160000C9443090C94B00F0C94ED0C0C944409BE
:100170000C946C0F0C9427120C94CF0C0C946210FE
:100180000C948B0F0C9449100C94870F0C94790FDE
:100190000C94EB0C0C949D0F0C94880C0C94F70CA5
:1001A0000C94810F0C94A30F0C94F6100C94AB0FCD
:1001B0000C947C120C948F0F0C94760F0C94950F6A
:1001C0000C9476100C94A10C0C94CD050C94680F33
:1001D0000C94EF0C0C94F50C0C941D120C94F30C75
:1001E00000000A0B02090C0D0E08070304010000B1
:1001F00000000000000000000000000000000000FF
:1002000000000000000000000000000012111000BB
:1002100000000000000000000000000000000000DE
:1002200000000000000001021020200808102040FB
:1002300010204080020102010804020101020408AA
:100240001020408080402010080402018004020138
:100250008040201008040201080402010102040881
:10026000102040800102040810204080050505058B
:10027000070508080808020202020A0A080804041E
:10028000040401010101010101010303030303034C
:100290000303040707070C0C0C0C0C0C0C0C0202DB
:1002A000020206060606060606060B0B0B0B0B0BD8
:1002B0000B0B000020002300260029002C002F003B
:1002C00032000001000003010601090100002200C4
:1002D000250028002B002E00310034000201000010
:1002E000050108010B0100002100240027002A005D
:1002F0002D003000330001010000040107010A0154
:10030000271211241FBECFEFD1E2DEBFCDBF00E028
:100310000CBF12E0A0E0B2E0E6E0F7E300E00BBFC4
:1003200002C007900D92A43DB107D9F724E0A4EDD7
:10033000B2E001C01D92AB3EB207E1F713E0C2E0AC
:10034000D3E000E006C022970109FE010BBF0E9426
:10035000BE18C030D10780E00807A9F70E946B12D1
:100360000C94811B0C940000CF93DF931092F20346
:100370001092F10381E090E09093F4038093F303F3
:100380001092D5021092D4020E94D70560E080E05E
:100390000E94B10F61E086E10E94B10F61E088E147
:1003A0000E94B10F61E08AE10E94B10F61E085E037
:1003B0000E94B10F61E084E00E94B10F61E082E031
:1003C0000E94B10F61E085E20E94B10F8FE190E0E1
:1003D0000E947A12EC0120E04BE06AE00E94850A5C
:1003E000D093E803C093E70340E056E960E070E093
:1003F000CE010E94B50A26E040E855E260E070E0D8
:100400008AE494E0DF91CF910C945B110F931F93DA
:10041000CF93DF9300D0CDB7DEB78091D402909117
:10042000D5020E9497088091D4029091D502823023
:10043000910509F44AC074F40097C1F0019709F0DE
:10044000B4C063E272E08AE494E00E94E71202E042
:1004500010E02DC08430910509F45EC00CF45FC03B
:10046000059709F0A2C066E472E084C06AE172E018
:100470008AE494E00E94E71268EE73E080E090E086
:100480000E94C80E80E00E9420108130910511F07A
:1004900082E090E09093F4038093F30375C00E9490
:1004A0005806882321F01093D5020093D40280913E
:1004B000E7039091E803DC01ED91FC910480F58164
:1004C000E02D1995892B59F770C06CE272E08AE42F
:1004D00094E00E94E7120091F6031091F7030115D2
:1004E000110509F451C0F801208131814281538105
:1004F00064817581868197810E941C08882309F494
:1005000043C0D80118960D911C911997F801808568
:100510009185892B41F73FC066E372E02BC06EE303
:1005200072E08AE494E00E94E712CE0101960E94F4
:10053000560465E270E0CE0101960E94210504EBAD
:1005400010E0B801CE0101960E9468056FE070E0EE
:1005500080E090E00E94C80E015011090A35110593
:1005600081F7CE0101960E94270568EE73E080E0D6
:1005700090E008C08AE494E00E94E71268E873E122
:1005800080E090E00E94C80E81E090E09093D50258
:100590008093D4020AC08091F503882319F083E088
:1005A00090E0F4CF84E090E0F1CF0F900F900F90A7
:1005B000DF91CF911F910F910895CF92DF92EF922B
:1005C000FF920F931F93CF93DF936C018B017A01FE
:1005D000EC01C952DD4F888187FF04C0FB01118205
:1005E000108223C02CE02C9DC0012D9D900D112464
:1005F0002881AC01420F511D27FD5A952091D6024A
:1006000030E0421753078CF42881AC01420F511D92
:1006100027FD5A959A01FA01EE0FFF1FE20FF31F13
:10062000E552FD4F208126FD19C088818F5F8883A8
:100630008CE08C9D90018D9D300D11248881A90145
:10064000480F511D87FD5A958091D60290E04817BA
:100650005907B4F488818C303CF112C02881820F94
:10066000911D27FD9A95FC01EE0FFF1FE80FF91F62
:10067000E552FD4F808160E08F730E94EA0FD5CF75
:10068000F80180819181049680349C4918F480E4BB
:100690009CE904C0F801808191810496F70191835F
:1006A00080838FEF888341C0F801808191814881E8
:1006B000B901640F711D47FD7A95AB01FB01EE0F87
:1006C000FF1FE40FF51FE552FD4F41815281840F5A
:1006D000951FF701918380838881A901480F511DDF
:1006E00087FD5A95FA01EE0FFF1FE40FF51FE55243
:1006F000FD4F808186FF19C08881280F311D87FD3D
:100700003A95F901EE0FFF1FE20FF31FE552FD4F7F
:10071000808161E08F73DF91CF911F910F91FF90E6
:10072000EF90DF90CF900C94EA0FDF91CF911F9163
:100730000F91FF90EF90DF90CF9008951F920F924E
:100740000FB60F9211240BB60F922F933F934F9336
:100750005F936F937F938F939F93AF93BF93EF9329
:10076000FF9348E850E064E870E081E090E00E9488
:10077000DD02FF91EF91BF91AF919F918F917F919A
:100780006F915F914F913F912F910F900BBE0F9002
:100790000FBE0F901F9018951F920F920FB60F92D9
:1007A00011240BB60F922F933F934F935F936F9348
:1007B0007F938F939F93AF93BF93EF93FF9348E9FA
:1007C00050E064E970E082E090E00E94DD02FF9179
:1007D000EF91BF91AF919F918F917F916F915F91B9
:1007E0004F913F912F910F900BBE0F900FBE0F9026
:1007F0001F9018951F920F920FB60F9211240BB6EF
:100800000F922F933F934F935F936F937F938F93A9
:100810009F93AF93BF93EF93FF9348EA50E064EA4E
:1008200070E083E090E00E94DD02FF91EF91BF91C4
:10083000AF919F918F917F916F915F914F913F9178
:100840002F910F900BBE0F900FBE0F901F90189519
:100850001F920F920FB60F9211240BB60F922F9387
:100860003F934F935F936F937F938F939F93AF9338
:10087000BF93EF93FF9348E251E064E271E080E0C0
:1008800090E00E94DD02FF91EF91BF91AF919F91A7
:100890008F917F916F915F914F913F912F910F9029
:1008A0000BBE0F900FBE0F901F9018952091D6028F
:1008B0002033A0F431E0320F3093D602FC012083C4
:1008C000822F90E0FC01EE0FFF1FE80FF91FE552A9
:1008D000FD4F88EB9BE09283818308952FEFFC010D
:1008E00020830895DF92EF92FF920F931F93CF938F
:1008F000DF93EC01D62E7A0189018881803308F0DC
:1009000068C061E08D2D0E94B10F8881A82FB0E0F2
:10091000FD01EE0FFF1FEA0FFB1FE552FD4F2D2DCE
:100920002F739081907C922B908360E272E06E191D
:100930007F0977FF02C06D5F7F4F7595679575954D
:100940006795698340E659E0401B510B57FF02C091
:100950004D5F5F4F55954795559547954A836CE098
:100960000E9445189CE0899FB001112420E030E0EE
:10097000A901460F571FFA01EE0FFF1FE40FF51FE5
:10098000E552FD4F908196FD18C02F5F3F4F2C30F0
:10099000310571F790E08130910521F510928000CA
:1009A00082E0809381001092850010928400B19AB9
:1009B00080916F00826080936F00888190E0FC01DD
:1009C000EE0FFF1FE80FF91FE552FD4F8081806495
:1009D00080838881DF91CF911F910F91FF90EF90DD
:1009E000DF9008958230910569F41092900082E0C2
:1009F00080939100109295001092940088BB809390
:100A00007100DBCF8330910569F41092A00082E081
:100A10008093A1001092A5001092A40089BB80933E
:100A20007200CBCF892B49F61092200182E080938F
:100A3000210110922501109224018ABB809373003A
:100A4000BCCF20E639E040E252E00C947204FC0195
:100A5000808190E0FC01EE0FFF1FE80FF91FE552C7
:100A6000FD4F80818F7B80830895FC0180818033DE
:100A700070F5918128E830E0291B310997FD339505
:100A8000220F331F220F331F621773077CF09281EE
:100A900028E532E0291B310997FD3395220F331FDA
:100AA000220F331F621773070CF49B012250310988
:100AB000220F331F4FB7F89490E0FC01EE0FFF1F99
:100AC000E80FF91FE552FD4F328321834FBF089590
:100AD0004F925F926F927F92AF92BF92CF92DF92CE
:100AE000EF92FF920F931F93CF93DF93EC0160324D
:100AF00082E078070CF040C077FD06C0653B7105C9
:100B00002CF064EB70E002C060E070E0898128E8BE
:100B100030E0281B310987FD3395220F331F220F48
:100B2000331F5901CC24B7FCC094DC2C882777FDF7
:100B30008095982F2A8148E552E0421B510927FDF4
:100B40005395440F551F440F551F2A01662457FC27
:100B50006094762C7F926F925F924F9214EBE12E0D
:100B6000F12C00E010E020E030E0A9010E94B9146F
:100B70000F900F900F900F90CE01DF91CF911F91AA
:100B80000F91FF90EF90DF90CF90BF90AF907F904C
:100B90006F905F904F900C9435058091F103909188
:100BA000F20301969093F2038093F103089584E594
:100BB00091EDAAE9BFE38093ED039093EE03A09338
:100BC000EF03B093F00380E693EBA4E7BFE38093D9
:100BD000E9039093EA03A093EB03B093EC03089529
:100BE000CF92DF92EF92FF920F931F93CF93DF93F9
:100BF0008C016B01E090F603F090F703E114F1042F
:100C000051F48AE090E00E94E518EC019093F7031C
:100C10008093F6030FC0F70180859185009711F04E
:100C20007C01F9CF8AE090E00E94E518EC01F70121
:100C300091878087B601882777FD8095982F0E943D
:100C40001A176C837D838E839F83B801882777FD75
:100C50008095982F0E941A17688379838A839B83D3
:100C600019861886DF91CF911F910F91FF90EF9019
:100C7000DF90CF900895CF93DF938091F60390910A
:100C8000F703FC0120853185232B59F0FC01C08539
:100C9000D185209721F00E947D19CE01F7CF0E94C7
:100CA0007D191092F7031092F603DF91CF9108950A
:100CB000EF92FF920F931F93CF93DF93CDB7DEB7E1
:100CC0002C970FB6F894DEBF0FBECDBF65EC72E077
:100CD000CE0107960E946E1560E572E08AE494E00A
:100CE0000E94C8126091E5037091E6034AE050E06B
:100CF0008AE494E00E949C136CE572E08AE494E03C
:100D00000E94C8126091E3037091E4034AE050E04E
:100D10008AE494E00E949C1361E672E08AE494E025
:100D20000E94C812BE01695F7F4F8AE494E00E946E
:100D3000D5128091F6039091F703892B11F00E9450
:100D40003B068091E7039091E803DC01ED91FC9173
:100D50000680F781E02D19954AE0BC01CE0101968D
:100D60000E94DE15BE016F5F7F4FCE0107960E9485
:100D7000BA15CE0101960E9400150091E50310916D
:100D8000E603E090E303F090E403CE0107960E94AF
:100D90000A16F801EE0FFF1FE00FF11FEE0DFF1D09
:100DA000EE0FFF1FE559FC4F718360838091E503CF
:100DB0009091E60301968431910529F09093E60322
:100DC0008093E5030DC01092E6031092E503809135
:100DD000E3039091E40301969093E4038093E3038B
:100DE0008091E3039091E403039709F045C00BE67B
:100DF00013E0F8016281738184819581681B790B0E
:100E0000808191810E94F0056BE672E08AE494E0B3
:100E10000E94C812D8016D917C914AE050E08AE4AA
:100E200094E00E949C1361E772E08AE494E00E94DF
:100E3000C812F8016281738184819581681B790BE6
:100E40004AE050E08AE494E00E94A4130A5F1F4F36
:100E5000F3E0033E1F0769F61092E6031092E503E4
:100E60001092E4031092E30365EC72E0CE01079662
:100E70000E94C61511E001C010E0CE0107960E9445
:100E80000015812F2C960FB6F894DEBF0FBECDBF94
:100E9000DF91CF911F910F91FF90EF900895CF9226
:100EA000DF92EF92FF926B017C016AE772E08AE4C5
:100EB00094E00E94C8124091ED035091EE036091BE
:100EC000EF037091F00322E030E08AE494E00E94A6
:100ED000A7142091ED033091EE034091EF03509160
:100EE000F003C701B6010E947F16FF90EF90DF90DC
:100EF000CF900895CF92DF92EF92FF926B017C0129
:100F00006DE872E08AE494E00E94C8124091E9031F
:100F10005091EA036091EB037091EC0322E030E022
:100F20008AE494E00E94A7142091E9033091EA0337
:100F30004091EB035091EC03C701B6010E947F166C
:100F4000FF90EF90DF90CF900895EF92FF920F9374
:100F50001F93CF93DF9300D01F921F92CDB7DEB7C0
:100F60007C0166E872E08AE494E00E94C8124AE0DC
:100F700050E0B7018AE494E00E94A41348E853E1EA
:100F800060E070E0CE0101960E94FC0B0FEF1FEFB6
:100F9000980140E052E065E0CE0101960E942F0CDE
:100FA00043E050E06DEC75E083E00E946B0C109222
:100FB000F2031092F1038091F1039091F2038E15E8
:100FC0009F0504F58AE090E00E94F00E8091E7030F
:100FD0009091E803DC01ED91FC910480F581E02D16
:100FE0001995892B41F30FEF1FEF980140E050E076
:100FF00065E0CE0101960E942F0C83E00E94DC0C7C
:1010000080E00EC083E00E94DC0C0FEF1FEF980120
:1010100040E050E065E0CE0101960E942F0C81E097
:101020000F900F900F900F900F90DF91CF911F9125
:101030000F91FF90EF9008958F929F92AF92BF9281
:10104000CF92DF92EF92FF926B017C0149015A012E
:1010500020E030E0A9010E94CA17181664F4C70105
:10106000B6010E947A076B017C0160E084E00E9477
:10107000EA0F61E038C020E030E0A901C701B60105
:101080000E947B1687FD23C0C501B4010E944F0753
:101090006B017C0161E084E00E94EA0F61E082E084
:1010A0000E94EA0F68EE73E080E090E00E94C80EB4
:1010B000C701B6010E94E716CB01FF90EF90DF90C9
:1010C000CF90BF90AF909F908F900C94A507C701D1
:1010D000B60190580E947A076B017C0161E084E0C0
:1010E0000E94EA0F60E082E00E94EA0F20E030E018
:1010F000A901C701B6010E947B16882329F268EE78
:1011000073E080E090E00E94C80EC701B6010E9423
:10111000E716CB010E94A5078111B6CFFF90EF9093
:10112000DF90CF90BF90AF909F908F900895CF9316
:10113000DF93EC0160E086E10E94EA0F60E088E165
:101140000E94EA0F60E08AE10E94EA0FC230D105F6
:10115000F1F04CF4209769F02197E1F461E086E129
:101160000E94EA0F0DC0C330D10569F0249741F009
:1011700011C061E086E10E94EA0F61E088E105C0EC
:1011800061E088E109C061E086E10E94EA0F61E068
:101190008AE102C060E086E1DF91CF910C94EA0F12
:1011A00020913A0430913B0428173907B9F4909103
:1011B000F8038091F903981789F0E091F803F0E0C3
:1011C000E650FC4F80812091F80330E02F5F3F4FC5
:1011D0002F7333272093F80390E008958FEF9FEF4C
:1011E00008951F93CF93DF93DC015C968D919C91C2
:1011F0005D97009749F481E090E013969C938E935D
:10120000129780E090E03BC05196ED91FC9152978F
:1012100050962C915097322F30951FB75E964C9177
:101220005E9741FB772770F941FD6095F894408106
:10123000772311F0422B01C043234083EC01219717
:10124000F1F748E0508160FF02C0522B01C05323E8
:101250005083EC012197F1F76695415099F7808111
:10126000772311F0832301C0822B80831FBF5C96FC
:101270008D919C915D970197F1F781E090E0DF916E
:10128000CF911F910895089520913A0430913B0425
:101290002817390781F49091F8038091F903981782
:1012A00051F0E091F803F0E0E650FC4F808199277F
:1012B00087FD909508958FEF9FEF089520913A0450
:1012C00030913B042817390771F48091F90320917C
:1012D000F80390E0805C9F4F821B910960E470E00E
:1012E0000E945118089580E090E00895E0913A043A
:1012F000F0913B04E817F90769F4A389B4899C913C
:101300008589809589238C9310923B0410923A042E
:1013100081E0089580E00895CF93DF93EC018A8DFA
:101320009B8D892BF1F080913A0490913B048C17AE
:101330009D07B9F0009711F00E9476098E8D8E7F7F
:101340008E8F1092F9031092F803D0933B04C09350
:101350003A04EB89FC8980819D89892B808381E017
:1013600001C080E0DF91CF9108951F920F920FB6D8
:101370000F9211240BB60F922F933F934F935F93CD
:101380006F937F938F939F93AF93BF93EF93FF934D
:10139000E0913A04F0913B04309709F451C0868DF6
:1013A000A685B785958581FF04C08C91892329F492
:1013B00047C08C91892309F043C0A389B4899C91CB
:1013C0008589809589238C93868997890197F1F780
:1013D000208D318DA685B785758558E040E0C9011F
:1013E0000197F1F7842F90E095958795482F6C91A0
:1013F000672309F04068515091F7868D81FD409533
:101400008091F90390E001968F7399272091F8035A
:10141000281749F0A091F903B0E0A650BC4F4C93B7
:101420008093F90303C0868D8160868F828D938DB2
:101430000197F1F7A389B4898C919589892B8C93B5
:10144000FF91EF91BF91AF919F918F917F916F919C
:101450005F914F913F912F910F900BBE0F900FBE58
:101460000F901F9018951F93CF93DF93EC01162FC9
:101470006E8D6695617081E06827812F0E94EA0F6A
:1014800061E0812F0E94B10F812F90E0FC01EA5DA5
:10149000FD4FE491E88BFC01E459FD4FE491F0E04D
:1014A000EE0FFF1FE453FD4F859194919A8B898B2A
:1014B000DF91CF911F9108951F93CF93DF93EC019C
:1014C000162F60E0812F0E94B10F8E8D81FD04C028
:1014D00061E0812F0E94EA0F1C87812F90E0FC01C0
:1014E000EA5DFD4FE491ED87FC01E459FD4FE49185
:1014F000F0E0EE0FFF1FEE54FD4F859194919F8712
:101500008E87DF91CF911F910895FF920F931F93C4
:10151000CF93DF93EC01F62E522F1B821A8208EE36
:1015200013E020E030E00C831D832E833F8387EAA5
:1015300092E0998388831F8A1E8A198E188E1B8ECB
:101540001A8E1D8E1C8E8E8D8E7F50FB81F98E8F94
:10155000642FCE010E94330A6F2DCE01DF91CF910F
:101560001F910F91FF900C945C0A0F931F93CF93E0
:10157000DF93EC019A01AB011B8E1A8E198E188E27
:101580001F8A1E8A60E079E08DE390E00E94871850
:10159000C9012430310520F0B9016350710902C03E
:1015A00061E070E07D8F6C8F1C8506EF010F0430C9
:1015B00048F06EEC610F643028F062EC610F683027
:1015C00008F07DC0B901769567956431710518F012
:1015D0006351710902C061E070E07F8B6E8B0697EA
:1015E00018F0C901059702C081E090E0998F888FBB
:1015F000C901880F991F820F931F9695879596951D
:1016000087958D30910510F00C9702C081E090E035
:101610009B8F8A8F043060F08EEC810F843040F015
:1016200082EC810F883008F051C0A8E6B0E050C0CD
:10163000A8E6B0E0E8E6F0E09081043028F01E5320
:10164000183010F484E001C081E0892B8C932C8544
:1016500036EF320F343058F08EEC820F843038F091
:1016600082EC820F883030F48DE690E005C08BE686
:1016700090E002C080E090E09C8B8B8B343010F4C3
:1016800026500BC0223379F0233379F0243379F0DC
:1016900082EC820F883068F4282F81E001C0880F27
:1016A0002A95EAF707C088E005C084E003C082E01D
:1016B00001C081E08D8B8C8D9D8D0197F1F7CE015E
:1016C000DF91CF911F910F910C948C09A0E0B0E0B5
:1016D000883008F4AFCFE0E0F0E0AECF1F920F9279
:1016E0000FB60F9211240BB60F922F933F934F9387
:1016F0005F936F937F938F939F93AF93BF93EF937A
:10170000FF93E0913F04F09140041995FF91EF9110
:10171000BF91AF919F918F917F916F915F914F9109
:101720003F912F910F900BBE0F900FBE0F901F9007
:101730001895FC01A3E0440F551F661F771FAA955B
:10174000D1F74115510581E06807710514F481E076
:101750000EC033E075956795579547953A95D1F743
:101760004115510581E0680771051CF482E0828310
:1017700031C023E075956795579547952A95D1F720
:101780004115510581E06807710514F483E0EFCF3E
:1017900092E075956795579547959A95D1F74115BC
:1017A000510581E06807710514F484E0E0CF82E020
:1017B00075956795579547958A95D1F785E082830A
:1017C0004115510581E06807710524F04FEF5FEF87
:1017D00060E070E0518340835093970040939600FF
:1017E00080919100887F80939100809191009281F7
:1017F000892B8093910008951092900020E120930E
:1018000091000C94990BE62FDC012D913C91DA01AB
:101810000E94AC18BAE09695879577956795BA952A
:10182000D1F7E53029F470939900609398000895FA
:10183000E23029F470939B0060939A000895E3309E
:1018400021F470939D0060939C000895E1E9F0E01D
:101850002081DC0112968C91282B20830895DF9241
:10186000EF92FF920F931F93CF93DF93EC01D62E4D
:101870007A01101611061206130624F4B901A80104
:101880000E94990B85E0D81205C06B9A8091900058
:1018900080680FC082E0D81205C06C9A80919000D9
:1018A000806207C083E0D81206C06D9A80919000D4
:1018B000886080939000A7016D2DCE010E94030CDB
:1018C000CE01DF91CF911F910F91FF90EF90DF90AC
:1018D0000C94260C0895883008F06DC0E82FF0E0D5
:1018E000EE0FFF1FE65FFD4F7183608390E0FC0108
:1018F0003197E730F10590F5EE58FF4F0C94A6189C
:10190000809169008C7F842B80936900E89A089508
:1019100080916900440F551F440F551F837F842B0E
:1019200080936900E99A08958091690074E0440FFA
:10193000551F7A95E1F78F7C842B80936900EA9A92
:1019400008958091690066E0440F551F6A95E1F79C
:101950008F73842B80936900EB9A089580916A00BD
:101960008C7F842B80936A00EC9A089580916A00A2
:10197000440F551F440F551F837F842B80936A00AB
:10198000ED9A089580916A0024E0440F551F2A952E
:10199000E1F78F7C842B80936A00EE9A0895809102
:1019A0006A0096E0440F551F9A95E1F78F73842BD8
:1019B00080936A00EF9A0895883020F5482F50E010
:1019C000FA013197E730F10560F4E758FF4F0C94C6
:1019D000A618E8980DC0E9980BC0EA9809C0EB98E2
:1019E00007C0EC9805C0ED9803C0EE9801C0EF98D1
:1019F000E82FF0E0EE0FFF1FE65FFD4F8AE69CE068
:101A00009183808308951F920F920FB60F92112435
:101A10000BB60F922F933F934F935F936F937F93E8
:101A20008F939F93AF93BF93EF93FF93E0910E0239
:101A3000F0910F021995FF91EF91BF91AF919F9196
:101A40008F917F916F915F914F913F912F910F9067
:101A50000BBE0F900FBE0F901F9018951F920F9204
:101A60000FB60F9211240BB60F922F933F934F9303
:101A70005F936F937F938F939F93AF93BF93EF93F6
:101A8000FF93E0911002F09111021995FF91EF91EF
:101A9000BF91AF919F918F917F916F915F914F9186
:101AA0003F912F910F900BBE0F900FBE0F901F9084
:101AB00018951F920F920FB60F9211240BB60F922A
:101AC0002F933F934F935F936F937F938F939F9346
:101AD000AF93BF93EF93FF93E0911202F091130243
:101AE0001995FF91EF91BF91AF919F918F917F9148
:101AF0006F915F914F913F912F910F900BBE0F907F
:101B00000FBE0F901F9018951F920F920FB60F9255
:101B100011240BB60F922F933F934F935F936F93C4
:101B20007F938F939F93AF93BF93EF93FF93E09136
:101B30001402F09115021995FF91EF91BF91AF91A9
:101B40009F918F917F916F915F914F913F912F91D5
:101B50000F900BBE0F900FBE0F901F9018951F9205
:101B60000F920FB60F9211240BB60F922F933F9343
:101B70004F935F936F937F938F939F93AF93BF9395
:101B8000EF93FF93E0910A02F0910B021995FF91F8
:101B9000EF91BF91AF919F918F917F916F915F91E5
:101BA0004F913F912F910F900BBE0F900FBE0F9052
:101BB0001F9018951F920F920FB60F9211240BB61B
:101BC0000F922F933F934F935F936F937F938F93D6
:101BD0009F93AF93BF93EF93FF93E0910C02F0912B
:101BE0000D021995FF91EF91BF91AF919F918F9148
:101BF0007F916F915F914F913F912F910F900BBE0D
:101C00000F900FBE0F901F9018951F920F920FB656
:101C10000F9211240BB60F922F933F934F935F9324
:101C20006F937F938F939F93AF93BF93EF93FF93A4
:101C3000E0911602F09117021995FF91EF91BF9173
:101C4000AF919F918F917F916F915F914F913F9154
:101C50002F910F900BBE0F900FBE0F901F901895F5
:101C60001F920F920FB60F9211240BB60F922F9363
:101C70003F934F935F936F937F938F939F93AF9314
:101C8000BF93EF93FF93E0911802F0911902199519
:101C9000FF91EF91BF91AF919F918F917F916F9144
:101CA0005F914F913F912F910F900BBE0F900FBE00
:101CB0000F901F9018951F920F920FB60F9211243C
:101CC0002F933F938F939F93AF93BF938091420441
:101CD00090914304A0914404B09145043091410493
:101CE00023E0230F2D3720F40196A11DB11D05C05F
:101CF00026E8230F0296A11DB11D20934104809375
:101D0000420490934304A0934404B093450480910B
:101D1000460490914704A0914804B091490401966B
:101D2000A11DB11D8093460490934704A0934804DD
:101D3000B0934904BF91AF919F918F913F912F91A3
:101D40000F900FBE0F901F9018953FB7F894809199
:101D5000460490914704A0914804B091490426B5E7
:101D6000A89B05C02F3F19F00196A11DB11D3FBFD3
:101D70006627782F892F9A2F620F711D811D911D63
:101D800042E0660F771F881F991F4A95D1F7089583
:101D9000CF92DF92EF92FF92CF93DF936B017C01A2
:101DA0000E94A50EEB01C114D104E104F10489F0F5
:101DB0000E9415160E94A50E6C1B7D0B683E734099
:101DC00090F381E0C81AD108E108F108C851DC4F4E
:101DD000EACFDF91CF91FF90EF90DF90CF90089501
:101DE0008230910538F0880F991F880F991F059749
:101DF0000197F1F70895789484B5826084BD84B525
:101E0000816084BD85B5826085BD85B5816085BDF5
:101E1000EEE6F0E0808181608083E1E8F0E010820E
:101E2000808182608083808181608083E0E8F0E04F
:101E3000808181608083E1EBF0E080818460808339
:101E4000E0EBF0E0808181608083E1E9F0E0808177
:101E500082608083808181608083E0E9F0E080811E
:101E600081608083E1EAF0E080818260808380810C
:101E700081608083E0EAF0E0808181608083E1E23C
:101E8000F1E0808182608083808181608083E0E2F4
:101E9000F1E0808181608083EAE7F0E08081846006
:101EA0008083808182608083808181608083808163
:101EB000806880831092C100089590E0FC01319702
:101EC000E231F10508F04CC0E058FF4F0C94A61821
:101ED000809180008F7703C0809180008F7D8093F8
:101EE0008000089580918000877FF9CF84B58F7737
:101EF00002C084B58F7D84BD08958091B0008F7736
:101F000003C08091B0008F7D8093B00008958091D0
:101F100090008F7707C0809190008F7D03C08091E3
:101F20009000877F8093900008958091A0008F7724
:101F300007C08091A0008F7D03C08091A000877FA3
:101F40008093A0000895809120018F7707C0809131
:101F500020018F7D03C080912001877F8093200125
:101F60000895CF93DF9390E0FC01EA5DFD4F24914B
:101F7000FC01E459FD4F8491882349F190E0880FDA
:101F8000991FFC01EA51FD4FA591B49184539D4FD7
:101F9000FC01C591D4919FB7611108C0F8948C9150
:101FA000209582238C93888182230AC0623051F469
:101FB000F8948C91322F309583238C938881822BD7
:101FC000888304C0F8948C91822B8C939FBFDF91FF
:101FD000CF9108950F931F93CF93DF931F92CDB7A7
:101FE000DEB7282F30E0F901E052FE4F8491F9016D
:101FF000EA5DFD4F1491F901E459FD4F049100236E
:10200000C9F0882321F069830E945D0F6981E02F68
:10201000F0E0EE0FFF1FE453FD4FA591B4919FB781
:10202000F8948C91611103C01095812301C0812B1C
:102030008C939FBF0F90DF91CF911F910F910895C7
:10204000CF93DF93282F30E0F901E052FE4F8491C7
:10205000F901EA5DFD4FD491F901E459FD4FC491B6
:10206000CC2391F081110E945D0FEC2FF0E0EE0F78
:10207000FF1FEE54FD4FA591B4912C912D2381E0CB
:1020800090E021F480E002C080E090E0DF91CF9109
:102090000895FC01818D228D90E0805C9F4F821B12
:1020A00091098F7399270895FC01918D828D98175E
:1020B00031F0828DE80FF11D858D90E008958FEF4E
:1020C0009FEF0895FC01918D828D981761F0828DAC
:1020D000DF01A80FB11D5D968C91928D9F5F9F735C
:1020E000928F90E008958FEF9FEF08958DE192E138
:1020F000892B41F080E090E0892B21F00E941D1295
:10210000811125C080E090E0892B41F080E090E0D3
:10211000892B21F00E94000081111CC080E090E01A
:10212000892B41F080E090E0892B21F00E94000093
:10213000811113C080E090E0892BA1F080E090E055
:10214000892B81F00E94000081110AC008950E942D
:102150000000D8CF0E940000E1CF0E940000EACF2B
:102160000C9400000895FC01848DDF01A80FB11DBF
:10217000A35ABF4F2C91848D90E001968F739927BD
:10218000848FA689B7892C93A089B1898C918064AA
:102190008C93938D848D981306C00288F389E02D6B
:1021A00080818F7D80830895CF93DF93EC01888DAC
:1021B0008823C9F0EA89FB89808185FD05C0A8894B
:1021C000B9898C9186FD0FC00FB607FCF5CF8081D1
:1021D00085FFF2CFA889B9898C9185FFEDCFCE011B
:1021E0000E94B310E7CFDF91CF910895CF92DF9295
:1021F000FF920F931F93CF93DF931F92CDB7DEB75C
:102200006C0181E0D60158968C9358975B969C910F
:102210005B975C968C915C97981307C05096ED91F4
:10222000FC915197808185FD2EC0F601038D10E051
:102230000F5F1F4F0F731127F02EF601848DF812D8
:1022400011C00FB607FCF9CFD6015096ED91FC9165
:102250005197808185FFF1CFC60169830E94B31039
:102260006981EBCF838DE80FF11DE35AFF4F608347
:10227000D6015B960C935B975296ED91FC91539728
:10228000808180620CC0D6015696ED91FC915797E3
:1022900060835096ED91FC9151978081806480839A
:1022A00081E090E00F90DF91CF911F910F91FF900F
:1022B000DF90CF900895BF92CF92DF92EF92FF927E
:1022C000CF93DF93EC016A017B01B22EE889F98993
:1022D00082E08083411581EE580761057105A1F008
:1022E00060E079E08DE390E0A70196010E94651817
:1022F0002150310941095109569547953795279540
:10230000211580E1380798F0E889F989108260E8A2
:1023100074E88EE190E0A70196010E9465182150B3
:102320003109410951095695479537952795EC850F
:10233000FD853083EE85FF852083188EEC89FD892D
:10234000B082EA89FB89808180618083EA89FB8988
:10235000808188608083EA89FB89808180688083AE
:10236000EA89FB8980818F7D8083DF91CF91FF9007
:10237000EF90DF90CF90BF9008951F920F920FB60D
:102380000F9211240BB60F922F938F939F93EF937D
:10239000FF93E0915A04F0915B048081E091600426
:1023A000F091610482FD12C09081809163048F5F7F
:1023B0008F7320916404821751F0E0916304F0E080
:1023C000E65BFB4F958F8093630401C08081FF9192
:1023D000EF919F918F912F910F900BBE0F900FBE99
:1023E0000F901F9018951F920F920FB60F92112405
:1023F0000BB60F922F933F934F935F936F937F93FF
:102400008F939F93AF93BF93EF93FF938AE494E0EE
:102410000E94B310FF91EF91BF91AF919F918F9167
:102420007F916F915F914F913F912F910F900BBED4
:102430000F900FBE0F901F9018958AE494E00E94B1
:10244000491021E0892B09F420E0822F0895109291
:102450004D0410924C0488EE93E0A0E0B0E080932D
:102460004E0490934F04A0935004B093510487EB13
:1024700092E090934B0480934A0485EC90E0909313
:1024800057048093560484EC90E090935904809311
:10249000580480EC90E090935B0480935A0481ECA4
:1024A00090E090935D0480935C0482EC90E09093C4
:1024B0005F0480935E0486EC90E0909361048093C7
:1024C00060041092630410926404109265041092E8
:1024D0006604089508950E94FB0E0E946A120E94ED
:1024E000B401C6E7D0E10E9406022097E1F30E9402
:1024F0007610F9CF0C94E518CF92DF92EF92FF920D
:102500000F931F93CF93DF937C016A01EB0100E0EF
:1025100010E00C151D0571F06991D701ED91FC914A
:102520000190F081E02DC7011995892B19F00F5FFB
:102530001F4FEFCFC801DF91CF911F910F91FF90F7
:10254000EF90DF90CF9008956115710581F0DB0168
:102550000D900020E9F7AD0141505109461B570B82
:10256000DC01ED91FC910280F381E02D199480E073
:1025700090E00895DC01ED91FC91DB0114964D9102
:102580005C9115976D917C910280F381E02D1994F7
:102590000C94A412DC01ED91FC910190F081E02DEE
:1025A000199463EC72E00C94A4120F931F93CF93D1
:1025B000DF93EC010E94BA128C01CE010E94D1126D
:1025C000800F911FDF91CF911F910F9108950F936D
:1025D0001F93CF93DF93EC010E94A4128C01CE01D4
:1025E0000E94D112800F911FDF91CF911F910F9107
:1025F00008958F929F92AF92BF92CF92DF92EF9207
:10260000FF920F931F93CF93DF93CDB7DEB7A197C0
:102610000FB6F894DEBF0FBECDBF7C01C42EE52FF0
:10262000CB01D22E19A221E02D1510F02AE0D22ED6
:102630008E010F5D1F4F8D2C912CA12CB12C6C2D78
:102640007E2FA50194010E9465188C2DD29E8019C1
:102650001124015011098A3014F4805D01C0895C95
:10266000F8018083211531054105510521F0C22E65
:10267000E32FCA01E4CFB801C7010E94A412A196BA
:102680000FB6F894DEBF0FBECDBFDF91CF911F9183
:102690000F91FF90EF90DF90CF90BF90AF909F9001
:1026A0008F900895CF92DF92EF92FF920F931F9336
:1026B000CF93DF93EC016A017B012115310579F499
:1026C000E881F9810190F081E02D642FDF91CF91B5
:1026D0001F910F91FF90EF90DF90CF9019942A30C7
:1026E0003105E9F477FF1AC06DE20E94CA128C012D
:1026F00044275527BA014C195D096E097F092AE064
:10270000CE010E94F912800F911FDF91CF911F918E
:102710000F91FF90EF90DF90CF9008952AE0B701DE
:10272000A601CE01DF91CF911F910F91FF90EF9005
:10273000DF90CF900C94F9129A01AB01662757FDF8
:102740006095762F0C9452130F931F93CF93DF93C2
:10275000EC019A01AB01662757FD6095762F0E9428
:1027600052138C01CE010E94D112800F911FDF9174
:10277000CF911F910F9108954F925F926F927F9228
:102780008F929F92AF92BF92CF92DF92EF92FF9281
:102790000F931F93CF93DF93EC016A017B01B22E5D
:1027A0009A01AB01C701B6010E943118882319F0C4
:1027B00066EC72E027C026013701E89477F82FEF26
:1027C0003FEF4FE75FE7C301B2010E94311881116B
:1027D0000DC02FEF3FEF4FE75FE7C301B2010E944B
:1027E0007B1618161CF46AEC72E00CC02FEF3FEF5A
:1027F0004FE75FE4C701B6010E94CA171816ACF490
:102800006EEC72E0CE01DF91CF911F910F91FF909E
:10281000EF90DF90CF90BF90AF909F908F907F9080
:102820006F905F904F900C94A4122FEF3FEF4FE703
:102830005FECC701B6010E947B1687FDE1CF20E067
:1028400030E0A901C701B6010E947B1687FF0AC0CC
:102850006DE2CE010E94CA128C01F7FAF094F7F8EB
:10286000F09402C000E010E0A12C60E070E080E095
:102870009FE3AB1441F020E030E040E251E40E94DD
:102880007F16A394F6CF9B01AC01C701B6010E944D
:1028900017166B017C010E94EC162B013C010E9473
:1028A00018179B01AC01C701B6010E9416166B01F7
:1028B0007C012AE0B301A201CE010E94F912080FA7
:1028C000191FBB2039F062ED72E0CE010E94A41204
:1028D000080F191F7B2C772041F120E030E040E207
:1028E00051E4C701B6010E94CE176B017C010E9422
:1028F000E7164B01AA2497FCA094BA2C2AE030E0FA
:10290000B501A401CE010E945213080F191FC50181
:10291000B4010E941A179B01AC01C701B6010E94C5
:1029200016166B017C017A94D6CFC801DF91CF9146
:102930001F910F91FF90EF90DF90CF90BF90AF90DD
:102940009F908F907F906F905F904F9008950F931E
:102950001F93CF93DF93EC010E94BC138C01CE0137
:102960000E94D112800F911FDF91CF911F910F9183
:1029700008954F925F926F927F92AF92BF92CF92E3
:10298000DF92EF92FF920F931F93CF93DF93CDB718
:10299000DEB729013A01621B730B840B950B2A8960
:1029A0003B894C895D892A193B094C095D092A8BB1
:1029B0003B8B4C8B5D8B9B01AC016A897B898C893D
:1029C0009D890E943518E418F50806091709A80121
:1029D00097010E9487182A0D3B1D4C1D5D1DCA01E1
:1029E000B901DF91CF911F910F91FF90EF90DF9090
:1029F000CF90BF90AF907F906F905F904F90089571
:102A0000FC01808191810C947D19CF93DF93EC01BF
:102A100088819981009711F00E947D19198218828E
:102A20001D821C821B821A82DF91CF9108950F9321
:102A30001F93CF93DF93EC018B016F5F7F4F8881F2
:102A400099810E940C1A009731F0998388831B8327
:102A50000A8381E001C080E0DF91CF911F910F9147
:102A60000895CF93DF93EC0188819981892B29F018
:102A70008A819B818617970760F4CE010E94171503
:102A8000882341F08C819D81892B19F4E881F9819B
:102A9000108281E0DF91CF910895EF92FF920F9322
:102AA0001F93CF93DF93EC017B018A01BA010E944F
:102AB0003115811104C0CE010E94051507C01D8388
:102AC0000C83B701888199810E94251BCE01DF917B
:102AD000CF911F910F91FF90EF900895FC0111820B
:102AE000108213821282158214826115710559F0C9
:102AF000FB0101900020E9F7AF0141505109461B4D
:102B0000570B0C944D1508950F931F93CF93DF939C
:102B10008C01EB01FC0180819181009799F0428149
:102B200053812C813D814217530750F06881798190
:102B30000E94251B8C819D81F8019583848313C09D
:102B40000E947D1988819981F801918380838A810F
:102B50009B81938382838C819D8195838483198259
:102B600018821B821A821D821C82DF91CF911F91D5
:102B70000F910895CF93DF93EC018617970711F01B
:102B80000E948415CE01DF91CF910895CF93DF93FA
:102B9000EC016115710561F0FB0101900020E9F77E
:102BA000AF0141505109461B570B0E944D1502C001
:102BB0000E940515CE01DF91CF9108950F931F93C9
:102BC000CF93DF93CDB7DEB762970FB6F894DEBF31
:102BD0000FBECDBF8C01CB01F80111821082138290
:102BE00012821582148250E0BE016F5F7F4F0E94F7
:102BF0002C1BBE016F5F7F4FC8010E94C6156296F5
:102C00000FB6F894DEBF0FBECDBFDF91CF911F91FD
:102C10000F910895FC0180819181009711F00C942F
:102C2000F51A60E070E0CB01089508955058BB2775
:102C3000AA270ED075C166D130F06BD120F031F4E7
:102C40009F3F11F41EF45BC10EF4E095E7FB51C108
:102C5000E92F77D180F3BA176207730784079507C6
:102C600018F071F49EF58FC10EF4E0950B2EBA2F7B
:102C7000A02D0B01B90190010C01CA01A001112482
:102C8000FF27591B99F0593F50F4503E68F11A162E
:102C9000F040A22F232F342F4427585FF3CF4695BF
:102CA00037952795A795F0405395C9F77EF41F16E1
:102CB000BA0B620B730B840BBAF09150A1F0FF0FAB
:102CC000BB1F661F771F881FC2F70EC0BA0F621F97
:102CD000731F841F48F4879577956795B795F79587
:102CE0009E3F08F0B3CF9395880F08F09927EE0F19
:102CF000979587950895D9D008F481E008950CD070
:102D00000FC107D140F0FED030F021F45F3F19F041
:102D1000F0C0511139C1F3C014D198F39923C9F30C
:102D20005523B1F3951B550BBB27AA2762177307D1
:102D3000840738F09F5F5F4F220F331F441FAA1F85
:102D4000A9F333D00E2E3AF0E0E830D09150504045
:102D5000E695001CCAF729D0FE2F27D0660F771FF3
:102D6000881FBB1F261737074807AB07B0E809F0D5
:102D7000BB0B802DBF01FF2793585F4F2AF09E3F6A
:102D8000510568F0B6C000C15F3FECF3983EDCF33C
:102D9000869577956795B795F7959F5FC9F7880FE3
:102DA000911D9695879597F90895E1E0660F771F35
:102DB000881FBB1F621773078407BA0720F0621BC6
:102DC000730B840BBA0BEE1F88F7E095089504D0BF
:102DD0006894B111D9C00895BCD088F09F5790F085
:102DE000B92F9927B751A0F0D1F0660F771F881F30
:102DF000991F1AF0BA95C9F712C0B13081F0C3D04B
:102E0000B1E00895C0C0672F782F8827B85F39F0E8
:102E1000B93FCCF3869577956795B395D9F73EF48E
:102E200090958095709561957F4F8F4F9F4F089536
:102E3000E89409C097FB3EF4909580957095619554
:102E40007F4F8F4F9F4F9923A9F0F92F96E9BB270A
:102E50009395F695879577956795B795F111F8CF86
:102E6000FAF4BB0F11F460FF1BC06F5F7F4F8F4FF1
:102E70009F4F16C0882311F096E911C0772321F0E7
:102E80009EE8872F762F05C0662371F096E8862F7F
:102E900070E060E02AF09A95660F771F881FDAF7D6
:102EA000880F9695879597F90895990F0008550F03
:102EB000AA0BE0E8FEEF16161706E807F907C0F0C0
:102EC00012161306E407F50798F0621B730B840BC8
:102ED000950B39F40A2661F0232B242B252B21F4A2
:102EE00008950A2609F4A140A6958FEF811D811D42
:102EF000089597F99F6780E870E060E008959FEF7C
:102F000080EC089500240A94161617061806090680
:102F1000089500240A94121613061406050608954F
:102F2000092E0394000C11F4882352F0BB0F40F4D7
:102F3000BF2B11F460FF04C06F5F7F4F8F4F9F4F17
:102F4000089557FD9058440F551F59F05F3F71F099
:102F50004795880F97FB991F61F09F3F79F0879500
:102F60000895121613061406551FF2CF4695F1DF89
:102F700008C0161617061806991FF1CF8695710519
:102F8000610508940895E894BB2766277727CB014D
:102F900097F908958ADF08F48FEF08950BD0C0CF1A
:102FA000B1DF28F0B6DF18F0952309F0A2CFA7CF44
:102FB0001124EACFC6DFA0F3959FD1F3950F50E01F
:102FC000551F629FF001729FBB27F00DB11D639FDB
:102FD000AA27F00DB11DAA1F649F6627B00DA11D81
:102FE000661F829F2227B00DA11D621F739FB00D27
:102FF000A11D621F839FA00D611D221F749F332797
:10300000A00D611D231F849F600D211D822F762F2F
:103010006A2F11249F5750408AF0E1F088234AF02C
:10302000EE0FFF1FBB1F661F771F881F9150504078
:10303000A9F79E3F510570F05CCFA6CF5F3FECF340
:10304000983EDCF3869577956795B795F795E79564
:103050009F5FC1F7FE2B880F911D9695879597F975
:10306000089523DF880B990B0895DB018F939F93BD
:103070000E94B318BF91AF91A29F800D911DA39F95
:10308000900DB29F900D11240895991B79E004C012
:10309000991F961708F0961B881F7A95C9F7809597
:1030A000089597FB072E16F4009407D077FD09D0FA
:1030B0000E94C21807FC05D03EF4909581959F4F61
:1030C0000895709561957F4F0895A1E21A2EAA1B6D
:1030D000BB1BFD010DC0AA1FBB1FEE1FFF1FA217C8
:1030E000B307E407F50720F0A21BB30BE40BF50BC5
:1030F000661F771F881F991F1A9469F7609570954E
:10310000809590959B01AC01BD01CF010895052EDE
:1031100097FB1EF400940E949E1857FD07D00E9452
:10312000651807FC03D04EF40C949E1850954095FA
:10313000309521953F4F4F4F5F4F08959095809563
:10314000709561957F4F8F4F9F4F0895EE0FFF1F32
:103150000590F491E02D19940E94D618B7FF0895B8
:10316000821B930B08950E94D618A59F900DB49FC3
:10317000900DA49F800D911D112408950790F69144
:10318000E02D1994AA1BBB1B51E107C0AA1FBB1F4E
:10319000A617B70710F0A61BB70B881F991F5A95E3
:1031A000A9F780959095BC01CD010895A29FB0012B
:1031B000B39FC001A39F700D811D1124911DB29F6B
:1031C000700D811D1124911D0895CF93DF938230DE
:1031D000910510F482E090E0E091E904F091EA04B6
:1031E00020E030E0A0E0B0E0309739F1408151813B
:1031F00048175907B8F04817590771F4828193812D
:10320000109729F013969C938E9312972CC090934D
:10321000EA048093E90427C02115310531F04217F3
:10322000530718F0A901DB0101C0EF019A01BD01AC
:10323000DF010280F381E02DD7CF21153105F9F0B0
:10324000281B390B2430310580F48A819B8161155C
:10325000710521F0FB019383828304C09093EA04FB
:103260008093E904FE01329644C0FE01E20FF31F91
:103270008193919322503109398328833AC0209158
:10328000E7043091E804232B41F4209102023091AD
:1032900003023093E8042093E70420910002309168
:1032A00001022115310541F42DB73EB740910402CA
:1032B00050910502241B350BE091E704F091E804DE
:1032C000E217F307A0F42E1B3F0B2817390778F0FD
:1032D000AC014E5F5F4F2417350748F04E0F5F1F5C
:1032E0005093E8044093E7048193919302C0E0E097
:1032F000F0E0CF01DF91CF910895CF93DF93009756
:1033000009F487C0FC01329713821282C091E9044C
:10331000D091EA04209781F420813181280F391F50
:103320008091E7049091E8048217930779F5F09370
:10333000E804E093E7046DC0DE0120E030E0AE1762
:10334000BF0750F412964D915C9113979D01411562
:10335000510509F1DA01F3CFB383A2834081518192
:10336000840F951F8A179B0771F48D919C9111977B
:10337000840F951F02969183808312968D919C9164
:103380001397938382832115310529F4F093EA047E
:10339000E093E9043EC0D9011396FC93EE93129793
:1033A0004D915D91A40FB51FEA17FB0779F4808159
:1033B0009181840F951F0296D90111969C938E934B
:1033C0008281938113969C938E931297E0E0F0E0B4
:1033D0008A819B81009719F0FE01EC01F9CFCE01A3
:1033E000029628813981820F931F2091E704309142
:1033F000E8042817390769F4309729F41092EA0491
:103400001092E90402C013821282D093E804C093A0
:10341000E704DF91CF9108956F927F928F929F92F0
:10342000AF92BF92CF92DF92EF92FF920F931F93D2
:10343000CF93DF93EC01CB01209781F4DF91CF9103
:103440001F910F91FF90EF90DF90CF90BF90AF90C2
:103450009F908F907F906F900C94E518FE01E60F7F
:10346000F71F9E0122503109E217F30708F4ACC0A0
:10347000D9010D911C91119706171707B8F0053067
:10348000110508F49FC0A801445051094617570779
:1034900008F498C002501109061B170B01931193F1
:1034A0006D937C93CF010E947D198CC05B01A01AA3
:1034B000B10A4E01800E911EA091E904B091EA0478
:1034C000612C712C60E070E0109709F449C0A815D8
:1034D000B905C9F5ED90FC901197670142E0C40E63
:1034E000D11CCA14DB0478F147018A189B086401D7
:1034F00042E0C40ED11C1296BC9012971396AC9168
:10350000B5E0CB16D10440F0B282A38391828082D1
:10351000D9018D939C9309C00E5F1F4F0E0D1F1D87
:10352000F90111830083EB2DFA2F6115710531F03C
:10353000DB011396FC93EE93129744C0F093EA04D8
:10354000E093E9043FC06D917C9111976616770670
:1035500008F43B01BD0112960D90BC91A02DB4CF93
:103560006091E7047091E80468157905E9F468163C
:103570007906D0F4409100025091010241155105A5
:1035800041F44DB75EB76091040270910502461B8D
:10359000570BE417F507C0F4F093E804E093E70451
:1035A000F901918380830EC00E94E5187C01009789
:1035B00059F0A801BE010E941C1BCE010E947D197A
:1035C000C70104C0CE0102C080E090E0DF91CF913E
:1035D0001F910F91FF90EF90DF90CF90BF90AF9031
:1035E0009F908F907F906F9008951F93FC01992773
:1035F0008827BC01E89411911032E9F3193010F0DA
:103600001E30C8F31B3251F01D3249F4689406C0D5
:103610000E94421B610F711D811D911D119110535C
:103620001A30B0F33EF490958095709561957F4F78
:103630008F4F9F4F1F910895FB01DC0102C0019045
:103640000D9241505040D8F70895FB01DC010190E4
:103650000D920020E1F708954532510520F44230E3
:1036600010F00C94371BFB011082CB010895BB278F
:103670004A3031F4992322F4BDE2909581959F4F11
:103680000C94581B592F482F372F262F660F771F62
:10369000881F991F660F771F881F991F620F731F5E
:1036A000841F951F660F771F881F991F0895BB27DA
:1036B000FB015527AA27880F991FAA1FA41710F0EE
:1036C000A41B83955051B9F7A05DAA3308F0A95DFA
:1036D000A193009779F7B111B1931192CB010C949A
:1036E000711BDC01FC01672F71917723E1F73297A1
:1036F00004C07C916D9370836291AE17BF07C8F3CD
:063700000895F894FFCFCC
:103706000000EB048000010000006A0C6A0C6A0CE1
:103716006A0C6A0C6A0C6A0C6A0C4D61696E496E19
:103726006974004D61696E49646C65004D61696E2E
:103736004472697665004D61696E456E64004D613F
:10374600696E554247004D61696E4572726F72002F
:10375600476574446174613A20693D0020206A3DE2
:103766000020206274446174613D005765673A2009
:103776000057696E6B656C3A2000675F537472651B
:10378600636B6550726F537465703A2000675F44CF
:1037960072656877696E6B656C50726F537465708D
:1037A6003A200000000000F1087C125E09D00844AF
:1037B60009430900000000F6107C124910621054FB
:1037C60010D4100D0A006E616E00696E66006F7689
:0437D60066002E005B
:00000001FF
