:1000000022C100000C946A0C0C94950C0C94C00C4A
:100010000C94EB0C0C94160D0C94410D0C946C0D7F
:100020000C94970D0C9427090C9427090C9427091C
:100030003BC1000039C1000037C1000035C10000DC
:1000400033C1000012C300002FC100002DC1000009
:100050002BC1000029C1000027C100000C94C20D73
:1000600023C100000C942C110C9462111DC10000DE
:100070001BC1000019C1000017C1000015C100001C
:1000800021C3000011C100000FC100000C94D90A67
:100090000BC1000009C1000007C1000005C100003C
:1000A00003C1000001C100003AC30000FDC0000010
:1000B000FBC00000F9C00000F7C000005DC30000F5
:1000C000F3C00000F1C00000EFC00000EDC0000070
:1000D000EBC00000E9C00000E7C00000E5C0000080
:1000E000E3C000001D0CE70BEF0BFB0B080C290C09
:1000F000360C5A0C500C520C540C560C5C0C5E0C0A
:10010000EC0EEF0EDE0EE20EE80E260FF30EF70EEB
:10011000FD0E010F050F0B0F0F0F130F260F190FF9
:100120001D0F210F00000A0B02090C0D0E0807031A
:1001300004010000000000000000000000000000BA
:1001400000000000000000000000000000000000AF
:10015000121110000000000000000000000000006C
:100160000000000000000000000001021020200834
:100170000810204010204080020102010804020102
:100180000102040810204080804020100804020171
:1001900080040201804020100804020108040201CA
:1001A0000102040810204080010204081020408051
:1001B00005050505070508080808020202020A0AE3
:1001C0000808040404040101010101010101030301
:1001D000030303030303040707070C0C0C0C0C0CAC
:1001E0000C0C0202020206060606060606060B0BA9
:1001F0000B0B0B0B0B0B000020002300260029002B
:100200002C002F003200000100000301060109014B
:1002100000002200250028002B002E0031003400B1
:1002200002010000050108010B010000210024006B
:1002300027002A002D0030003300010100000401D6
:1002400007010A01941111241FBECFEFD1E2DEBFD6
:10025000CDBF00E00CBF12E0A0E0B2E0E8E3F5E3C0
:1002600000E00BBF02C007900D92A43DB107D9F783
:1002700024E0A4EDB2E001C01D92AB3EB207E1F76D
:1002800012E0C6E4D2E000E006C022970109FE01B8
:100290000BBF0E94E017C434D10780E00807A9F71C
:1002A0000E94D8110C949A1AABCECF93DF93109280
:1002B000F2031092F10381E090E09093F4038093B5
:1002C000F3031092D5021092D40202D460E080E0D1
:1002D0000E94270F61E086E10E94270F61E088E11C
:1002E0000E94270F61E08AE10E94270F61E085E00C
:1002F0000E94270F61E084E00E94270F61E082E006
:100300000E94270F61E085E20E94270F8FE190E0B5
:100310000E94E411EC0120E04BE06AE00E94F30946
:10032000D093E803C093E70340E056E960E070E053
:10033000CE010E94210A26E040E855E260E070E02C
:100340008AE494E0DF91CF910C94CC100F931F932B
:10035000CF93DF9300D0CDB7DEB78091D4029091D8
:10036000D50260D68091D4029091D5028230910559
:1003700009F449C074F40097C1F0019709F0ACC0CA
:1003800063E272E08AE494E00E944C1202E010E022
:100390002CC08430910509F45AC00CF45BC0059759
:1003A00009F09AC066E472E07CC06AE172E08AE417
:1003B00094E00E944C1268EE73E080E090E00E94AE
:1003C0002F0E80E00E94950F8130910511F082E0A0
:1003D00090E09093F4038093F3036DC0FAD38823E5
:1003E00021F01093D5020093D4028091E7039091FD
:1003F000E803DC01ED91FC910480F581E02D199575
:10040000892B61F769C06CE272E08AE494E00E9493
:100410004C120091F6031091F7030115110509F430
:100420004AC0F80120813181428153816481758104
:100430008681978188D5882309F43DC0D801189614
:100440000D911C9119970115110559F73BC066E3F1
:1004500072E027C06EE372E08AE494E00E944C12DE
:10046000CE010196B6D165E270E0CE0101967CD254
:1004700004EB10E0B801CE010196BCD26FE070E051
:1004800080E090E00E942F0E015011090A351105FD
:1004900089F7CE0101966DD268EE73E080E090E0BE
:1004A00008C08AE494E00E944C1268E873E180E09E
:1004B00090E00E942F0E81E090E09093D50280930F
:1004C000D4020AC08091F503882319F083E090E0FC
:1004D000F4CF84E090E0F1CF0F900F900F90DF9178
:1004E000CF911F910F910895CF92DF92EF92FF92DB
:1004F0000F931F93CF93DF936C018B017A01EC0173
:10050000C952DD4F888187FF04C0FB011182108230
:1005100023C02CE02C9DC0012D9D900D112428811D
:10052000AC01420F511D27FD5A952091D60230E0B3
:10053000421753078CF42881AC01420F511D27FD4F
:100540005A959A01FA01EE0FFF1FE20FF31FE552D1
:10055000FD4F208126FD19C088818F5F88838CE044
:100560008C9D90018D9D300D11248881A901480F2B
:10057000511D87FD5A958091D60290E04817590782
:10058000B4F488818C303CF112C02881820F911D17
:1005900027FD9A95FC01EE0FFF1FE80FF91FE552AA
:1005A000FD4F808160E08F730E94600FD5CFF8010E
:1005B00080819181049680349C4918F480E49CE900
:1005C00004C0F801808191810496F70191838083B2
:1005D0008FEF888341C0F801808191814881B90102
:1005E000640F711D47FD7A95AB01FB01EE0FFF1FF4
:1005F000E40FF51FE552FD4F41815281840F951F95
:10060000F701918380838881A901480F511D87FDDF
:100610005A95FA01EE0FFF1FE40FF51FE552FD4F4B
:10062000808186FF19C08881280F311D87FD3A958A
:10063000F901EE0FFF1FE20FF31FE552FD4F80811E
:1006400061E08F73DF91CF911F910F91FF90EF9039
:10065000DF90CF900C94600FDF91CF911F910F919D
:10066000FF90EF90DF90CF9008951F920F920FB6FA
:100670000F9211240BB60F922F933F934F935F93DA
:100680006F937F938F939F93AF93BF93EF93FF935A
:1006900048E850E064E870E081E090E025DFFF91F9
:1006A000EF91BF91AF919F918F917F916F915F91EA
:1006B0004F913F912F910F900BBE0F900FBE0F9057
:1006C0001F9018951F920F920FB60F9211240BB620
:1006D0000F922F933F934F935F936F937F938F93DB
:1006E0009F93AF93BF93EF93FF9348E950E064E982
:1006F00070E082E090E0F8DEFF91EF91BF91AF9162
:100700009F918F917F916F915F914F913F912F9129
:100710000F900BBE0F900FBE0F901F9018951F9259
:100720000F920FB60F9211240BB60F922F933F9397
:100730004F935F936F937F938F939F93AF93BF93E9
:10074000EF93FF9348EA50E064EA70E083E090E0C2
:10075000CBDEFF91EF91BF91AF919F918F917F91F0
:100760006F915F914F913F912F910F900BBE0F9022
:100770000FBE0F901F9018951F920F920FB60F92F9
:1007800011240BB60F922F933F934F935F936F9368
:100790007F938F939F93AF93BF93EF93FF9348E221
:1007A00051E064E271E080E090E09EDEFF91EF9125
:1007B000BF91AF919F918F917F916F915F914F9179
:1007C0003F912F910F900BBE0F900FBE0F901F9077
:1007D00018952091D6022033A0F431E0320F3093E7
:1007E000D602FC012083822F90E0FC01EE0FFF1F58
:1007F000E80FF91FE552FD4F88EB9BE09283818360
:1008000008952FEFFC0120830895DF92EF92FF926D
:100810000F931F93CF93DF93EC01D62E7A018901BA
:100820008881803308F068C061E08D2D0E94270F19
:100830008881A82FB0E0FD01EE0FFF1FEA0FFB1F1C
:10084000E552FD4F2D2D2F739081907C922B90833C
:1008500060E272E06E197F0977FF02C06D5F7F4F23
:100860007595679575956795698340E659E0401BD6
:10087000510B57FF02C04D5F5F4F559547955595FA
:1008800047954A836CE00E946D179CE0899FB001F8
:10089000112420E030E0A901460F571FFA01EE0FA6
:1008A000FF1FE40FF51FE552FD4F908196FD18C024
:1008B0002F5F3F4F2C30310571F790E0813091056B
:1008C00021F51092800082E08093810010928500D3
:1008D00010928400B19A80916F00826080936F00C3
:1008E000888190E0FC01EE0FFF1FE80FF91FE55231
:1008F000FD4F8081806480838881DF91CF911F913B
:100900000F91FF90EF90DF9008958230910569F488
:100910001092900082E080939100109295001092C6
:10092000940088BB80937100DBCF8330910569F41C
:100930001092A00082E08093A1001092A500109276
:10094000A40089BB80937200CBCF892B49F610920B
:10095000200182E080932101109225011092240150
:100960008ABB80937300BCCF20E639E040E252E0BE
:100970004CCFFC01808190E0FC01EE0FFF1FE80FDF
:10098000F91FE552FD4F80818F7B80830895FC0124
:100990008081803370F5918128E830E0291B31098E
:1009A00097FD3395220F331F220F331F62177307F2
:1009B0007CF0928128E532E0291B310997FD3395BF
:1009C000220F331F220F331F621773070CF49B0192
:1009D00022503109220F331F4FB7F89490E0FC01E9
:1009E000EE0FFF1FE80FF91FE552FD4F3283218301
:1009F0004FBF08954F925F926F927F92AF92BF92D6
:100A0000CF92DF92EF92FF920F931F93CF93DF93DA
:100A1000EC01603282E078070CF040C077FD06C040
:100A2000653B71052CF064EB70E002C060E070E0A3
:100A3000898128E830E0281B310987FD3395220F92
:100A4000331F220F331F5901CC24B7FCC094DC2C78
:100A5000882777FD8095982F2A8148E552E0421B30
:100A6000510927FD5395440F551F440F551F2A0167
:100A7000662457FC6094762C7F926F925F924F921F
:100A800014EBE12EF12C00E010E020E030E0A901B1
:100A90000E94F4130F900F900F900F90CE01DF91F2
:100AA000CF911F910F91FF90EF90DF90CF90BF906B
:100AB000AF907F906F905F904F9069CF8091F103DE
:100AC0009091F20301969093F2038093F1030895BD
:100AD00084E591EDAAE9BFE38093ED039093EE03E3
:100AE000A093EF03B093F00380E693EBA4E7BFE39A
:100AF0008093E9039093EA03A093EB03B093EC0394
:100B00000895CF92DF92EF92FF920F931F93CF93AE
:100B1000DF938C016B01E090F603F090F703E11492
:100B2000F10451F48AE090E00E940718EC019093E0
:100B3000F7038093F6030FC0F70180859185009736
:100B400011F07C01F9CF8AE090E00E940718EC01D7
:100B5000F70191878087B601882777FD8095982FC8
:100B60000E9443166C837D838E839F83B801882700
:100B700077FD8095982F0E944316688379838A8336
:100B80009B8319861886DF91CF911F910F91FF905B
:100B9000EF90DF90CF900895CF93DF938091F6038D
:100BA0009091F703FC0120853185232B59F0FC013E
:100BB000C085D185209721F00E949F18CE01F7CFE4
:100BC0000E949F181092F7031092F603DF91CF91C5
:100BD0000895EF92FF920F931F93CF93DF93CDB7BA
:100BE000DEB72C970FB6F894DEBF0FBECDBF65EC15
:100BF00072E0CE0107960E94A01460E572E08AE4DC
:100C000094E00E9431126091E5037091E6034AE09E
:100C100050E08AE494E00E94F0126CE572E08AE40D
:100C200094E00E9431126091E3037091E4034AE082
:100C300050E08AE494E00E94F01261E672E08AE4F7
:100C400094E00E943112BE01695F7F4F8AE494E014
:100C50000E943C128091F6039091F703892B09F0D2
:100C60009BDF8091E7039091E803DC01ED91FC911B
:100C70000680F781E02D19954AE0BC01CE0101966E
:100C80000E940A15BE016F5F7F4FCE0107960E943A
:100C9000E914CE0101960E9439140091E5031091E8
:100CA000E603E090E303F090E403CE0107960E9490
:100CB0003415F801EE0FFF1FE00FF11FEE0DFF1DC1
:100CC000EE0FFF1FE559FC4F718360838091E503B0
:100CD0009091E60301968431910529F09093E60303
:100CE0008093E5030DC01092E6031092E503809116
:100CF000E3039091E40301969093E4038093E3036C
:100D00008091E3039091E403039709F044C00BE65C
:100D100013E0F8016281738184819581681B790BEE
:100D200080819181EEDE6BE672E08AE494E00E94BD
:100D30003112D8016D917C914AE050E08AE494E050
:100D40000E94F01261E772E08AE494E00E9431129E
:100D5000F8016281738184819581681B790B4AE077
:100D600050E08AE494E00E94F7120A5F1F4FF3E01C
:100D7000033E1F0771F61092E6031092E5031092EE
:100D8000E4031092E30365EC72E0CE0107960E9443
:100D9000F41411E001C010E0CE0107960E9439144E
:100DA000812F2C960FB6F894DEBF0FBECDBFDF911A
:100DB000CF911F910F91FF90EF900895CF92DF9206
:100DC000EF92FF926B017C016AE772E08AE494E0A3
:100DD0000E9431124091ED035091EE036091EF03B8
:100DE0007091F00322E030E08AE494E00E94E41382
:100DF0002091ED033091EE034091EF035091F00309
:100E0000C701B6010E94A815FF90EF90DF90CF9028
:100E10000895CF92DF92EF92FF926B017C016DE813
:100E200072E08AE494E00E9431124091E90350910B
:100E3000EA036091EB037091EC0322E030E08AE476
:100E400094E00E94E4132091E9033091EA03409179
:100E5000EB035091EC03C701B6010E94A815FF9067
:100E6000EF90DF90CF900895EF92FF920F931F9332
:100E7000CF93DF9300D01F921F92CDB7DEB77C01D6
:100E800066E872E08AE494E00E9431124AE050E0A1
:100E9000B7018AE494E00E94F71248E853E160E069
:100EA00070E0CE01019613D40FEF1FEF980140E0E0
:100EB00052E065E0CE0101963CD443E050E06EE59F
:100EC00075E083E06FD41092F2031092F1038091E9
:100ED000F1039091F2038E159F05ECF48AE090E007
:100EE000F5D68091E7039091E803DC01ED91FC9148
:100EF0000480F581E02D1995892B49F30FEF1FEF41
:100F0000980140E050E065E0CE01019612D483E004
:100F1000BAD480E00CC083E0B6D40FEF1FEF980185
:100F200040E050E065E0CE01019603D481E00F90EF
:100F30000F900F900F900F90DF91CF911F910F9115
:100F4000FF90EF9008958F929F92AF92BF92CF92B1
:100F5000DF92EF92FF926B017C0149015A0120E080
:100F600030E0A9010E94F316181654F4C701B60127
:100F700050DF6B017C0160E084E0A2D761E031C00A
:100F800020E030E0A901C701B6010E94A41587FD49
:100F90001EC0C501B40112DF6B017C0161E084E079
:100FA0008FD761E082E08CD764E670E080E090E06B
:100FB00056D6C701B6010E941016CB01FF90EF90E4
:100FC000DF90CF90BF90AF909F908F904DCFC70193
:100FD000B60190581EDF6B017C0161E084E070D7A0
:100FE00060E082E06DD720E030E0A901C701B601E2
:100FF0000E94A415882369F264E670E080E090E026
:101000002ED6C701B6010E941016CB012DDF81112B
:10101000C0CFFF90EF90DF90CF90BF90AF909F90A8
:101020008F900895CF93DF93EC0160E086E148D77D
:1010300060E088E145D760E08AE142D7C230D1055F
:10104000D9F044F4209761F02197C9F461E086E17A
:1010500037D70CC0C330D10561F0249739F00FC0E9
:1010600061E086E12DD761E088E105C061E088E1BB
:1010700008C061E086E124D761E08AE102C060E057
:1010800086E1DF91CF911CC720913A0430913B0457
:1010900028173907B9F49091F8038091F90398174C
:1010A00089F0E091F803F0E0E650FC4F8081209158
:1010B000F80330E02F5F3F4F2F7333272093F8035F
:1010C00090E008958FEF9FEF08951F93CF93DF93E4
:1010D000DC015C968D919C915D97009749F481E0CD
:1010E00090E013969C938E93129780E090E03BC023
:1010F0005196ED91FC91529750962C915097322F2A
:1011000030951FB75E964C915E9741FB772770F93B
:1011100041FD6095F8944081772311F0422B01C086
:1011200043234083EC012197F1F748E0508160FFB1
:1011300002C0522B01C053235083EC012197F1F7D9
:101140006695415099F78081772311F0832301C080
:10115000822B80831FBF5C968D919C915D97019738
:10116000F1F781E090E0DF91CF911F91089508950C
:1011700020913A0430913B042817390781F490916B
:10118000F8038091F903981751F0E091F803F0E02B
:10119000E650FC4F8081992787FD909508958FEF49
:1011A0009FEF089520913A0430913B0428173907A6
:1011B00069F48091F9032091F80390E0805C9F4FDF
:1011C000821B910960E470E00C94791780E090E054
:1011D0000895E0913A04F0913B04E817F90769F4A7
:1011E000A389B4899C918589809589238C931092D9
:1011F0003B0410923A0481E0089580E00895CF9373
:10120000DF93EC018A8D9B8D892BE9F080913A0464
:1012100090913B048C179D07B1F0009709F0D9DF3E
:101220008E8D8E7F8E8F1092F9031092F803D093DB
:101230003B04C0933A04EB89FC8980819D89892B0A
:10124000808381E001C080E0DF91CF9108951F92FB
:101250000F920FB60F9211240BB60F922F933F935C
:101260004F935F936F937F938F939F93AF93BF93AE
:10127000EF93FF93E0913A04F0913B04309709F427
:1012800051C0868DA685B785958581FF04C08C9158
:10129000892329F447C08C91892309F043C0A3898D
:1012A000B4899C918589809589238C9386899789B7
:1012B0000197F1F7208D318DA685B785758558E0AA
:1012C00040E0C9010197F1F7842F90E0959587954B
:1012D000482F6C91672309F04068515091F7868D33
:1012E00081FD40958091F90390E001968F739927D5
:1012F0002091F803281749F0A091F903B0E0A65017
:10130000BC4F4C938093F90303C0868D8160868F18
:10131000828D938D0197F1F7A389B4898C9195897A
:10132000892B8C93FF91EF91BF91AF919F918F91FA
:101330007F916F915F914F913F912F910F900BBED5
:101340000F900FBE0F901F9018951F93CF93DF93B0
:10135000EC01162F6E8D6695617081E06827812FF4
:10136000AFD561E0812F73D5812F90E0FC01E65964
:10137000FE4FE491E88BFC01E055FE4FE491F0E074
:10138000EE0FFF1FE05FFD4F859194919A8B898B43
:10139000DF91CF911F9108951F93CF93DF93EC01BD
:1013A000162F60E0812F53D58E8D81FD03C061E043
:1013B000812F86D51C87812F90E0FC01E659FE4FD6
:1013C000E491ED87FC01E055FE4FE491F0E0EE0F73
:1013D000FF1FEA50FE4F859194919F878E87DF9182
:1013E000CF911F910895FF920F931F93CF93DF9397
:1013F000EC01F62E522F1B821A8208EE13E020E039
:1014000030E00C831D832E833F8387EA92E099832B
:1014100088831F8A1E8A198E188E1B8E1A8E1D8E27
:101420001C8E8E8D8E7F50FB81F98E8F642FCE01A6
:101430008CDF6F2DCE01DF91CF911F910F91FF9027
:10144000ABCF0F931F93CF93DF93EC019A01AB01C6
:101450001B8E1A8E198E188E1F8A1E8A60E079E004
:101460008DE390E00E94AE17C9012430310520F0D1
:10147000B9016350710902C061E070E07D8F6C8F2B
:101480001C8506EF010F043048F06EEC610F6430EC
:1014900028F062EC610F683008F07DC0B9017695E4
:1014A00067956431710518F06351710902C061E0FC
:1014B00070E07F8B6E8B069718F0C901059702C00C
:1014C00081E090E0998F888FC901880F991F820F62
:1014D000931F96958795969587958D30910510F079
:1014E0000C9702C081E090E09B8F8A8F043060F0FF
:1014F0008EEC810F843040F082EC810F883008F050
:1015000050C0A8E6B0E04FC0A8E6B0E0E8E6F0E0E2
:101510009081043028F01E53183010F484E001C08C
:1015200081E0892B8C932C8536EF320F343058F0C4
:101530008EEC820F843038F082EC820F883030F4E9
:101540008DE690E005C08BE690E002C080E090E080
:101550009C8B8B8B343010F426500BC0223379F0E7
:10156000233379F0243379F082EC820F883068F4E9
:10157000282F81E001C0880F2A95EAF707C088E08C
:1015800005C084E003C082E001C081E08D8B8C8DBA
:101590009D8D0197F1F7CE01DF91CF911F910F91B2
:1015A0002ECEA0E0B0E0883008F4B0CFE0E0F0E06C
:1015B000AFCF1F920F920FB60F9211240BB60F925E
:1015C0002F933F934F935F936F937F938F939F934B
:1015D000AF93BF93EF93FF93E0913F04F0914004EA
:1015E0001995FF91EF91BF91AF919F918F917F914D
:1015F0006F915F914F913F912F910F900BBE0F9084
:101600000FBE0F901F901895FC01A3E0440F551FCB
:10161000661F771FAA95D1F74115510581E068072C
:10162000710514F481E00EC033E075956795579508
:1016300047953A95D1F74115510581E06807710545
:101640001CF482E0828331C023E07595679557953D
:1016500047952A95D1F74115510581E06807710535
:1016600014F483E0EFCF92E0759567955795479511
:101670009A95D1F74115510581E06807710514F479
:1016800084E0E0CF82E075956795579547958A95F8
:10169000D1F785E082834115510581E06807710526
:1016A00024F04FEF5FEF60E070E051834083509390
:1016B00097004093960080919100887F80939100DD
:1016C000809191009281892B8093910008951092CE
:1016D000900020E12093910097CFE62FDC012D911F
:1016E0003C91DA010E94D017BAE0969587957795DC
:1016F0006795BA95D1F7E53029F470939900609316
:1017000098000895E23029F470939B0060939A004A
:101710000895E33021F470939D0060939C00089538
:10172000E1E9F0E02081DC0112968C91282B2083E6
:101730000895DF92EF92FF920F931F93CF93DF9361
:10174000EC01D62E7A0110161106120613061CF4AF
:10175000B901A80159DF85E0D81205C06B9A8091C4
:10176000900080680FC082E0D81205C06C9A80910A
:101770009000806207C083E0D81206C06D9A809105
:101780009000886080939000A7016D2DCE01A5DFA9
:10179000CE01DF91CF911F910F91FF90EF90DF90DD
:1017A000BFCF0895883008F06DC0E82FF0E0EE0F4D
:1017B000FF1FE65FFD4F7183608390E0FC0131976E
:1017C000E730F10590F5EE58FF4F0C94CA17809161
:1017D00069008C7F842B80936900E89A089580913A
:1017E0006900440F551F440F551F837F842B80933E
:1017F0006900E99A08958091690074E0440F551FCB
:101800007A95E1F78F7C842B80936900EA9A08959A
:101810008091690066E0440F551F6A95E1F78F7368
:10182000842B80936900EB9A089580916A008C7FE5
:10183000842B80936A00EC9A089580916A00440F8B
:10184000551F440F551F837F842B80936A00ED9AA8
:10185000089580916A0024E0440F551F2A95E1F70E
:101860008F7C842B80936A00EE9A089580916A00A1
:1018700096E0440F551F9A95E1F78F73842B809360
:101880006A00EF9A0895883020F5482F50E0FA0159
:101890003197E730F10560F4E758FF4F0C94CA1711
:1018A000E8980DC0E9980BC0EA9809C0EB9807C00A
:1018B000EC9805C0ED9803C0EE9801C0EF98E82FB2
:1018C000F0E0EE0FFF1FE65FFD4F81ED9BE091839F
:1018D000808308951F920F920FB60F9211240BB6BA
:1018E0000F922F933F934F935F936F937F938F93B9
:1018F0009F93AF93BF93EF93FF93E0910E02F0910C
:101900000F021995FF91EF91BF91AF919F918F9128
:101910007F916F915F914F913F912F910F900BBEEF
:101920000F900FBE0F901F9018951F920F920FB639
:101930000F9211240BB60F922F933F934F935F9307
:101940006F937F938F939F93AF93BF93EF93FF9387
:10195000E0911002F09111021995FF91EF91BF9162
:10196000AF919F918F917F916F915F914F913F9137
:101970002F910F900BBE0F900FBE0F901F901895D8
:101980001F920F920FB60F9211240BB60F922F9346
:101990003F934F935F936F937F938F939F93AF93F7
:1019A000BF93EF93FF93E0911202F0911302199508
:1019B000FF91EF91BF91AF919F918F917F916F9127
:1019C0005F914F913F912F910F900BBE0F900FBEE3
:1019D0000F901F9018951F920F920FB60F9211241F
:1019E0000BB60F922F933F934F935F936F937F9319
:1019F0008F939F93AF93BF93EF93FF93E091140264
:101A0000F09115021995FF91EF91BF91AF919F91C0
:101A10008F917F916F915F914F913F912F910F9097
:101A20000BBE0F900FBE0F901F9018951F920F9234
:101A30000FB60F9211240BB60F922F933F934F9333
:101A40005F936F937F938F939F93AF93BF93EF9326
:101A5000FF93E0910A02F0910B021995FF91EF912B
:101A6000BF91AF919F918F917F916F915F914F91B6
:101A70003F912F910F900BBE0F900FBE0F901F90B4
:101A800018951F920F920FB60F9211240BB60F925A
:101A90002F933F934F935F936F937F938F939F9376
:101AA000AF93BF93EF93FF93E0910C02F0910D027F
:101AB0001995FF91EF91BF91AF919F918F917F9178
:101AC0006F915F914F913F912F910F900BBE0F90AF
:101AD0000FBE0F901F9018951F920F920FB60F9286
:101AE00011240BB60F922F933F934F935F936F93F5
:101AF0007F938F939F93AF93BF93EF93FF93E09167
:101B00001602F09117021995FF91EF91BF91AF91D5
:101B10009F918F917F916F915F914F913F912F9105
:101B20000F900BBE0F900FBE0F901F9018951F9235
:101B30000F920FB60F9211240BB60F922F933F9373
:101B40004F935F936F937F938F939F93AF93BF93C5
:101B5000EF93FF93E0911802F09119021995FF910C
:101B6000EF91BF91AF919F918F917F916F915F9115
:101B70004F913F912F910F900BBE0F900FBE0F9082
:101B80001F9018951F920F920FB60F9211242F934A
:101B90003F938F939F93AF93BF9380914204909113
:101BA0004304A0914404B09145043091410423E0E2
:101BB000230F2D3720F40196A11DB11D05C026E885
:101BC000230F0296A11DB11D20934104809342046E
:101BD00090934304A0934404B09345048091460439
:101BE00090914704A0914804B09149040196A11D29
:101BF000B11D8093460490934704A0934804B0938A
:101C00004904BF91AF919F918F913F912F910F9078
:101C10000FBE0F901F9018953FB7F894809146041F
:101C200090914704A0914804B091490426B5A89B1F
:101C300005C02F3F19F00196A11DB11D3FBF6627BA
:101C4000782F892F9A2F620F711D811D911D42E0FF
:101C5000660F771F881F991F4A95D1F708958F92B5
:101C60009F92AF92BF92CF92DF92EF92FF926B0161
:101C70007C01D2DF4B015C01C114D104E104F10409
:101C8000E1F0FCD6C9DF681979098A099B09683E29
:101C900073408105910580F321E0C21AD108E10863
:101CA000F10888EE880E83E0981EA11CB11CC114B7
:101CB000D104E104F10431F7DFCFFF90EF90DF9022
:101CC000CF90BF90AF909F908F90089582309105F4
:101CD00038F0880F991F880F991F05970197F1F722
:101CE0000895789484B5826084BD84B5816084BD94
:101CF00085B5826085BD85B5816085BDEEE6F0E085
:101D0000808181608083E1E8F0E0108280818260E0
:101D10008083808181608083E0E8F0E08081816061
:101D20008083E1EBF0E0808184608083E0EBF0E091
:101D3000808181608083E1E9F0E08081826080833E
:101D4000808181608083E0E9F0E080818160808330
:101D5000E1EAF0E08081826080838081816080831D
:101D6000E0EAF0E0808181608083E1E2F1E080815F
:101D700082608083808181608083E0E2F1E0808105
:101D800081608083EAE7F0E08081846080838081E5
:101D9000826080838081816080838081806880838D
:101DA0001092C100089590E0FC013197E231F105F5
:101DB00008F04CC0E058FF4F0C94CA178091800087
:101DC0008F7703C0809180008F7D8093800008957D
:101DD00080918000877FF9CF84B58F7702C084B56A
:101DE0008F7D84BD08958091B0008F7703C080916E
:101DF000B0008F7D8093B0000895809190008F7720
:101E000007C0809190008F7D03C080919000877FF4
:101E10008093900008958091A0008F7707C08091F3
:101E2000A0008F7D03C08091A000877F8093A000D9
:101E30000895809120018F7707C0809120018F7DC8
:101E400003C080912001877F809320010895CF9364
:101E5000DF9390E0FC01E659FE4F2491FC01E05530
:101E6000FE4F8491882349F190E0880F991FFC016F
:101E7000E65DFD4FA591B491805F9D4FFC01C5913A
:101E8000D4919FB7611108C0F8948C91209582235A
:101E90008C93888182230AC0623051F4F8948C912B
:101EA000322F309583238C938881822B888304C0C2
:101EB000F8948C91822B8C939FBFDF91CF910895E2
:101EC0000F931F93CF93DF931F92CDB7DEB7282FC9
:101ED00030E0F901EC5DFE4F8491F901E659FE4FC7
:101EE0001491F901E055FE4F04910023C1F08823BD
:101EF00019F0698358DF6981E02FF0E0EE0FFF1FD2
:101F0000E05FFD4FA591B4919FB7F8948C9161115A
:101F100003C01095812301C0812B8C939FBF0F902C
:101F2000DF91CF911F910F910895CF93DF93282FC9
:101F300030E0F901EC5DFE4F8491F901E659FE4F66
:101F4000D491F901E055FE4FC491CC2389F0811161
:101F50002ADFEC2FF0E0EE0FFF1FEA50FE4FA591B5
:101F6000B4912C912D2381E090E021F480E002C017
:101F700080E090E0DF91CF910895FC01818D228D6A
:101F800090E0805C9F4F821B91098F739927089581
:101F9000FC01918D828D981731F0828DE80FF11D33
:101FA000858D90E008958FEF9FEF0895FC01918D4E
:101FB000828D981761F0828DDF01A80FB11D5D96AB
:101FC0008C91928D9F5F9F73928F90E008958FEF19
:101FD0009FEF08958BE891E1892B39F080E090E044
:101FE000892B19F098D1811125C080E090E0892BD0
:101FF00041F080E090E0892B21F00E9400008111E7
:102000001CC080E090E0892B41F080E090E0892BBB
:1020100021F00E940000811113C080E090E0892B24
:10202000A1F080E090E0892B81F00E9400008111F6
:102030000AC008950E940000D8CF0E940000E1CF9E
:102040000E940000EACF0C9400000895FC01848DEA
:10205000DF01A80FB11DA35ABF4F2C91848D90E0D2
:1020600001968F739927848FA689B7892C93A089AD
:10207000B1898C9180648C93938D848D981306C064
:102080000288F389E02D80818F7D80830895CF932E
:10209000DF93EC01888D8823C1F0EA89FB89808178
:1020A00085FD05C0A889B9898C9186FD0EC00FB643
:1020B00007FCF5CF808185FFF2CFA889B9898C9183
:1020C00085FFEDCFCE01C2DFE8CFDF91CF9108953C
:1020D000CF92DF92FF920F931F93CF93DF931F92C4
:1020E000CDB7DEB76C0181E0D60158968C93589736
:1020F0005B969C915B975C968C915C97981307C05C
:102100005096ED91FC915197808185FD2DC0F6018F
:10211000038D10E00F5F1F4F0F731127F02EF60194
:10212000848DF81210C00FB607FCF9CFD601509677
:10213000ED91FC915197808185FFF1CFC6016983B4
:1021400085DF6981ECCF838DE80FF11DE35AFF4FE6
:102150006083D6015B960C935B975296ED91FC9150
:102160005397808180620CC0D6015696ED91FC9108
:10217000579760835096ED91FC91519780818064D0
:10218000808381E090E00F90DF91CF911F910F91BC
:10219000FF90DF90CF900895BF92CF92DF92EF92A1
:1021A000FF92CF93DF93EC016A017B01B22EE889A5
:1021B000F98982E08083411581EE58076105710538
:1021C00099F060E079E08DE390E0A7019601A4D654
:1021D0002150310941095109569547953795279561
:1021E000211580E1380790F0E889F989108260E8CC
:1021F00074E88EE190E0A70196018ED62150310956
:10220000410951095695479537952795EC85FD85E8
:102210003083EE85FF852083188EEC89FD89B0829E
:10222000EA89FB89808180618083EA89FB898081DA
:1022300088608083EA89FB89808180688083EA895D
:10224000FB8980818F7D8083DF91CF91FF90EF901C
:10225000DF90CF90BF9008951F920F920FB60F920C
:1022600011240BB60F922F938F939F93EF93FF93AD
:10227000E0915A04F0915B048081E0916004F09158
:10228000610482FD12C09081809163048F5F8F731F
:1022900020916404821751F0E0916304F0E0E65B62
:1022A000FB4F958F8093630401C08081FF91EF9174
:1022B0009F918F912F910F900BBE0F900FBE0F909B
:1022C0001F9018951F920F920FB60F9211240BB604
:1022D0000F922F933F934F935F936F937F938F93BF
:1022E0009F93AF93BF93EF93FF938AE494E0AEDEA6
:1022F000FF91EF91BF91AF919F918F917F916F91DE
:102300005F914F913F912F910F900BBE0F900FBE99
:102310000F901F9018958AE494E02FDE21E0892B1E
:1023200009F420E0822F089510924D0410924C047D
:1023300088EE93E0A0E0B0E080934E0490934F04C9
:10234000A0935004B093510487EB92E090934B0418
:1023500080934A0485EC90E0909357048093560450
:1023600084EC90E0909359048093580480EC90E0C2
:1023700090935B0480935A0481EC90E090935D0409
:1023800080935C0482EC90E090935F0480935E0401
:1023900086EC90E090936104809360041092630453
:1023A00010926404109265041092660408950895D2
:1023B00098DCFDDF0E945501CAEEDFE00E94A60115
:1023C0002097E1F307DEFACF22C6CF92DF92EF9299
:1023D000FF920F931F93CF93DF937C016A01EB0170
:1023E00000E010E00C151D0571F06991D701ED9129
:1023F000FC910190F081E02DC7011995892B19F00E
:102400000F5F1F4FEFCFC801DF91CF911F910F9149
:10241000FF90EF90DF90CF9008956115710581F0E6
:10242000DB010D900020E9F7AD0141505109461B39
:10243000570BDC01ED91FC910280F381E02D1994A2
:1024400080E090E00895DC01ED91FC91DB011496B1
:102450004D915C9115976D917C910280F381E02DF7
:102460001994DBCFDC01ED91FC910190F081E02D1E
:10247000199463EC72E0D1CF0F931F93CF93DF9346
:10248000EC01E1DF8C01CE01F4DF800F911FDF91C1
:10249000CF911F910F9108950F931F93CF93DF93C7
:1024A000EC01BBDF8C01CE01E4DF800F911FDF91D7
:1024B000CF911F910F9108958F929F92AF92BF92EB
:1024C000DF92EF92FF920F931F93CF93DF93CDB7DD
:1024D000DEB7A1970FB6F894DEBF0FBECDBF7C016B
:1024E000F42FD52ECB0119A2223008F42AE08E0158
:1024F0000F5D1F4F822E912CA12CB12C6F2F7D2DA3
:10250000A501940109D5F22FD32ECA01015011095A
:102510006A3014F4E0E301C0E7E3E60FD801EC937E
:10252000232B242B252B51F7B801C70176DFA19669
:102530000FB6F894DEBF0FBECDBFDF91CF911F91D4
:102540000F91FF90EF90DF90BF90AF909F908F9092
:102550000895CF92DF92EF92FF920F931F93CF9344
:10256000DF93EC016A017B012115310579F4E881E3
:10257000F9810190F081E02D642FDF91CF911F91BF
:102580000F91FF90EF90DF90CF9019942A30310592
:10259000D9F477FF18C06DE265DF8C014427552719
:1025A000BA014C195D096E097F092AE0CE0184DF6A
:1025B000800F911FDF91CF911F910F91FF90EF90AE
:1025C000DF90CF9008952AE0B701A601CE01DF91F8
:1025D000CF911F910F91FF90EF90DF90CF906CCF34
:1025E0009A01AB01662757FD6095762FB2CF0F9306
:1025F0001F93CF93DF93EC019A01AB01662757FD40
:102600006095762FA6DF8C01CE0133DF800F911FFE
:10261000DF91CF911F910F9108954F925F926F922A
:102620007F928F929F92AF92BF92CF92DF92EF9262
:10263000FF920F931F93CF93DF93EC016A017B010D
:10264000B22E9A01AB01C701B60134D4882319F028
:1026500066EC72E024C026013701E89477F82FEF8A
:102660003FEF4FE75FE7C301B20124D481110CC0F3
:102670002FEF3FEF4FE75FE7C301B20165D21816B6
:102680001CF46AEC72E00BC02FEF3FEF4FE75FE402
:10269000C701B601A8D31816A4F46EEC72E0CE01FF
:1026A000DF91CF911F910F91FF90EF90DF90CF902E
:1026B000BF90AF909F908F907F906F905F904F9062
:1026C000ACCE2FEF3FEF4FE75FECC701B6013CD236
:1026D00087FDE3CF20E030E0A901C701B60134D285
:1026E00087FF09C06DE2CE01BDDE8C01F7FAF094E0
:1026F000F7F8F09402C000E010E0A12C60E070E078
:1027000080E09FE3AB1439F020E030E040E251E498
:102710001FD2A394F7CF9B01AC01C701B601B0D182
:102720006B017C0182D22B013C01ABD29B01AC013D
:10273000C701B601A4D16B017C012AE0B301A2015B
:10274000CE01BADE080F191FBB2031F062ED72E036
:10275000CE0163DE080F191F7B2C772019F120E0D2
:1027600030E040E251E4C701B60141D36B017C0186
:1027700057D24B01AA2497FCA094BA2C2AE030E04F
:10278000B501A401CE01E5DE080F191FC501B40192
:102790007AD29B01AC01C701B60171D16B017C01FA
:1027A0007A94DBCFC801DF91CF911F910F91FF90F9
:1027B000EF90DF90CF90BF90AF909F908F907F90E1
:1027C0006F905F904F9008950F931F93CF93DF9377
:1027D000EC0123DF8C01CE014CDE800F911FDF91D5
:1027E000CF911F910F9108954F925F926F927F92B8
:1027F000AF92BF92CF92DF92EF92FF920F931F930F
:10280000CF93DF93CDB7DEB729013A01621B730B7B
:10281000840B950B2A893B894C895D892A193B09D0
:102820004C095D092A8B3B8B4C8B5D8B9B01AC016A
:102830006A897B898C899D8941D3E418F50806094A
:102840001709A80197018AD32A0D3B1D4C1D5D1D58
:10285000CA01B901DF91CF911F910F91FF90EF90C5
:10286000DF90CF90BF90AF907F906F905F904F9030
:102870000895FC018081918162C4CF93DF93EC01C4
:1028800088819981009709F05AD4198218821D8293
:102890001C821B821A82DF91CF9108950F931F93A0
:1028A000CF93DF93EC018B016F5F7F4F888199811C
:1028B000D5D4009731F0998388831B830A8381E004
:1028C00001C080E0DF91CF911F910F910895CF93C8
:1028D000DF93EC0188819981892B29F08A819B8182
:1028E0008617970758F4CE01D9DF882341F08C81F1
:1028F0009D81892B19F4E881F981108281E0DF91B3
:10290000CF910895EF92FF920F931F93CF93DF9390
:10291000EC017B018A01BA01DADF811103C0CE012B
:10292000ACDF06C01D830C83B70188819981A9D5CE
:10293000CE01DF91CF911F910F91FF90EF900895FD
:10294000FC01118210821382128215821482611599
:10295000710551F0FB0101900020E9F7AF014150F2
:102960005109461B570BCECF08950F931F93CF935A
:10297000DF938C01EB01FC0180819181009789F04C
:10298000428153812C813D814217530748F0688171
:10299000798177D58C819D81F8019583848312C0DC
:1029A000CED388819981F801918380838A819B812C
:1029B000938382838C819D8195838483198218827D
:1029C0001B821A821D821C82DF91CF911F910F9171
:1029D0000895CF93DF93EC018617970709F0C5DFC1
:1029E000CE01DF91CF910895CF93DF93EC01611574
:1029F000710559F0FB0101900020E9F7AF0141504A
:102A00005109461B570B7EDF01C037DFCE01DF9136
:102A1000CF9108950F931F93CF93DF93CDB7DEB778
:102A200062970FB6F894DEBF0FBECDBF8C01CB010D
:102A3000F80111821082138212821582148250E0F2
:102A4000BE016F5F7F4F24D5BE016F5F7F4FC8010E
:102A5000CBDF62960FB6F894DEBF0FBECDBFDF911D
:102A6000CF911F910F910895FC0180819181009772
:102A700009F0D8C460E070E0CB0108950895505883
:102A8000BB27AA270ED075C166D130F06BD120F0DC
:102A900031F49F3F11F41EF45BC10EF4E095E7FBA7
:102AA00051C1E92F77D180F3BA1762077307840702
:102AB000950718F071F49EF58FC10EF4E0950B2E7A
:102AC000BA2FA02D0B01B90190010C01CA01A00180
:102AD0001124FF27591B99F0593F50F4503E68F1DB
:102AE0001A16F040A22F232F342F4427585FF3CF1C
:102AF000469537952795A795F0405395C9F77EF4ED
:102B00001F16BA0B620B730B840BBAF09150A1F035
:102B1000FF0FBB1F661F771F881FC2F70EC0BA0FBB
:102B2000621F731F841F48F4879577956795B79543
:102B3000F7959E3F08F0B3CF9395880F08F099273B
:102B4000EE0F979587950895D9D008F481E0089500
:102B50000CD00FC107D140F0FED030F021F45F3F20
:102B600019F0F0C0511139C1F3C014D198F3992371
:102B7000C9F35523B1F3951B550BBB27AA27621741
:102B80007307840738F09F5F5F4F220F331F441F86
:102B9000AA1FA9F333D00E2E3AF0E0E830D09150BE
:102BA0005040E695001CCAF729D0FE2F27D0660FAB
:102BB000771F881FBB1F261737074807AB07B0E8EA
:102BC00009F0BB0B802DBF01FF2793585F4F2AF000
:102BD0009E3F510568F0B6C000C15F3FECF3983EE0
:102BE000DCF3869577956795B795F7959F5FC9F75D
:102BF000880F911D9695879597F90895E1E0660FE6
:102C0000771F881FBB1F621773078407BA0720F05E
:102C1000621B730B840BBA0BEE1F88F7E0950895C7
:102C200004D06894B111D9C00895BCD088F09F57E2
:102C300090F0B92F9927B751A0F0D1F0660F771F08
:102C4000881F991F1AF0BA95C9F712C0B13081F0E8
:102C5000C3D0B1E00895C0C0672F782F8827B85F30
:102C600039F0B93FCCF3869577956795B395D9F749
:102C70003EF490958095709561957F4F8F4F9F4F53
:102C80000895E89409C097FB3EF49095809570955F
:102C900061957F4F8F4F9F4F9923A9F0F92F96E9A8
:102CA000BB279395F695879577956795B795F1111D
:102CB000F8CFFAF4BB0F11F460FF1BC06F5F7F4FBA
:102CC0008F4F9F4F16C0882311F096E911C07723CC
:102CD00021F09EE8872F762F05C0662371F096E8D5
:102CE000862F70E060E02AF09A95660F771F881FA4
:102CF000DAF7880F9695879597F90895990F000848
:102D0000550FAA0BE0E8FEEF16161706E807F907BD
:102D1000C0F012161306E407F50798F0621B730B58
:102D2000840B950B39F40A2661F0232B242B252BD9
:102D300021F408950A2609F4A140A6958FEF811D7C
:102D4000811D089597F99F6780E870E060E008951D
:102D50009FEF80EC089500240A94161617061806B3
:102D60000906089500240A9412161306140605068F
:102D70000895092E0394000C11F4882352F0BB0F20
:102D800040F4BF2B11F460FF04C06F5F7F4F8F4F83
:102D90009F4F089557FD9058440F551F59F05F3FBE
:102DA00071F04795880F97FB991F61F09F3F79F06D
:102DB00087950895121613061406551FF2CF4695EF
:102DC000F1DF08C0161617061806991FF1CF869571
:102DD0007105610508940895E894BB276627772755
:102DE000CB0197F908958ADF08F48FEF08950BD08F
:102DF000C0CFB1DF28F0B6DF18F0952309F0A2CFDD
:102E0000A7CF1124EACFC6DFA0F3959FD1F3950F8A
:102E100050E0551F629FF001729FBB27F00DB11D5E
:102E2000639FAA27F00DB11DAA1F649F6627B00DEE
:102E3000A11D661F829F2227B00DA11D621F739FD7
:102E4000B00DA11D621F839FA00D611D221F749FE5
:102E50003327A00D611D231F849F600D211D822F2C
:102E6000762F6A2F11249F5750408AF0E1F0882373
:102E70004AF0EE0FFF1FBB1F661F771F881F915080
:102E80005040A9F79E3F510570F05CCFA6CF5F3F41
:102E9000ECF3983EDCF3869577956795B795F795B3
:102EA000E7959F5FC1F7FE2B880F911D969587953B
:102EB00097F9089523DF880B990B0895DB018F9311
:102EC0009F9374D0BF91AF91A29F800D911DA39F3E
:102ED000900DB29F900D11240895991B79E004C0C4
:102EE000991F961708F0961B881F7A95C9F7809549
:102EF000089597FB072E16F4009406D077FD08D0AE
:102F000063D007FC05D03EF4909581959F4F0895BE
:102F1000709561957F4F0895A1E21A2EAA1BBB1BE5
:102F2000FD010DC0AA1FBB1FEE1FFF1FA217B30795
:102F3000E407F50720F0A21BB30BE40BF50B661FAB
:102F4000771F881F991F1A9469F76095709580956F
:102F500090959B01AC01BD01CF010895052E97FB13
:102F600016F400940FD057FD05D0D6DF07FC02D031
:102F700046F408C050954095309521953F4F4F4FEE
:102F80005F4F089590958095709561957F4F8F4F15
:102F90009F4F0895EE0FFF1F0590F491E02D1994B7
:102FA00027D0B7FF0895821B930B089521D0A59FCA
:102FB000900DB49F900DA49F800D911D1124089534
:102FC0000790F691E02D1994AA1BBB1B51E107C095
:102FD000AA1FBB1FA617B70710F0A61BB70B881FA9
:102FE000991F5A95A9F780959095BC01CD01089538
:102FF000A29FB001B39FC001A39F700D811D11243A
:10300000911DB29F700D811D1124911D0895CF93C4
:10301000DF938230910510F482E090E0E091E904C2
:10302000F091EA0420E030E0A0E0B0E0309739F120
:103030004081518148175907B8F04817590771F472
:1030400082819381109729F013969C938E93129707
:103050002CC09093EA048093E90427C02115310520
:1030600031F04217530718F0A901DB0101C0EF014D
:103070009A01BD01DF010280F381E02DD7CF211538
:103080003105F9F0281B390B2430310580F48A8191
:103090009B816115710521F0FB019383828304C03C
:1030A0009093EA048093E904FE01329644C0FE0145
:1030B000E20FF31F819391932250310939832883C2
:1030C0003AC02091E7043091E804232B41F4209189
:1030D0000202309103023093E8042093E704209128
:1030E0000002309101022115310541F42DB73EB7A0
:1030F0004091040250910502241B350BE091E70436
:10310000F091E804E217F307A0F42E1B3F0B2817F9
:10311000390778F0AC014E5F5F4F2417350748F050
:103120004E0F5F1F5093E8044093E70481939193FF
:1031300002C0E0E0F0E0CF01DF91CF910895CF939E
:10314000DF93009709F487C0FC0132971382128243
:10315000C091E904D091EA04209781F42081318163
:10316000280F391F8091E7049091E8048217930794
:1031700079F5F093E804E093E7046DC0DE0120E008
:1031800030E0AE17BF0750F412964D915C91139743
:103190009D014115510509F1DA01F3CFB383A283F3
:1031A00040815181840F951F8A179B0771F48D917F
:1031B0009C911197840F951F02969183808312969C
:1031C0008D919C911397938382832115310529F466
:1031D000F093EA04E093E9043EC0D9011396FC930E
:1031E000EE9312974D915D91A40FB51FEA17FB075F
:1031F00079F480819181840F951F0296D9011196EF
:103200009C938E938281938113969C938E931297B5
:10321000E0E0F0E08A819B81009719F0FE01EC016B
:10322000F9CFCE01029628813981820F931F209118
:10323000E7043091E8042817390769F4309729F436
:103240001092EA041092E90402C013821282D09311
:10325000E804C093E704DF91CF9108956F927F92C5
:103260008F929F92AF92BF92CF92DF92EF92FF9296
:103270000F931F93CF93DF93EC01CB01209779F449
:10328000DF91CF911F910F91FF90EF90DF90CF9042
:10329000BF90AF909F908F907F906F90B8CEFE01BF
:1032A000E60FF71F9E0122503109E217F30708F4D9
:1032B000A8C0D9010D911C91119706171707B0F0FE
:1032C0000530110508F49BC0A80144505109461768
:1032D000570708F494C002501109061B170B0193FD
:1032E00011936D937C93CF012ADF89C05B01A01AF3
:1032F000B10A4E01800E911EA091E904B091EA043A
:10330000612C712C60E070E0109709F449C0A81599
:10331000B905C9F5ED90FC901197670142E0C40E24
:10332000D11CCA14DB0478F147018A189B08640198
:1033300042E0C40ED11C1296BC9012971396AC9129
:10334000B5E0CB16D10440F0B282A3839182808293
:10335000D9018D939C9309C00E5F1F4F0E0D1F1D49
:10336000F90111830083EB2DFA2F6115710531F0FE
:10337000DB011396FC93EE93129741C0F093EA049D
:10338000E093E9043CC06D917C9111976616770635
:1033900008F43B01BD0112960D90BC91A02DB4CF55
:1033A0006091E7047091E80468157905E9F46816FE
:1033B0007906D0F440910002509101024115510567
:1033C00041F44DB75EB76091040270910502461B4F
:1033D000570BE417F507A8F4F093E804E093E7042B
:1033E000F901918380830BC012DE7C01009749F0C4
:1033F000A801BE013DD0CE01A2DEC70104C0CE01AE
:1034000002C080E090E0DF91CF911F910F91FF907B
:10341000EF90DF90CF90BF90AF909F908F907F9074
:103420006F9008951F93FC0199278827BC01E894A9
:1034300011911032E9F3193010F01E30C8F31B322D
:1034400049F01D3241F4689405C036D0610F711DFA
:10345000811D911D119110531A30B8F33EF49095CF
:103460008095709561957F4F8F4F9F4F1F91089565
:10347000FB01DC0102C001900D9241505040D8F791
:103480000895FB01DC0101900D920020E1F7089501
:103490004532510518F4423008F004C0FB01108297
:1034A000CB010895BB274A3031F4992322F4BDE2C1
:1034B000909581959F4F16C0592F482F372F262F53
:1034C000660F771F881F991F660F771F881F991F28
:1034D000620F731F841F951F660F771F881F991F28
:1034E0000895BB27FB015527AA27880F991FAA1FFC
:1034F000A41710F0A41B83955051B9F7A05DAA330F
:1035000008F0A95DA193009779F7B111B1931192D9
:10351000CB0100C0DC01FC01672F71917723E1F73B
:10352000329704C07C916D9370836291AE17BF0790
:08353000C8F30895F894FFCFE1
:103538000000EB04800001000000D10BD10BD10B7F
:10354800D10BD10BD10BD10BD10B4D61696E496EEB
:103558006974004D61696E49646C65004D61696EFE
:103568004472697665004D61696E456E64004D610F
:10357800696E554247004D61696E4572726F7200FF
:10358800476574446174613A20693D0020206A3DB2
:103598000020206274446174613D005765673A20D9
:1035A8000057696E6B656C3A2000675F53747265EB
:1035B800636B6550726F537465703A2000675F449F
:1035C80072656877696E6B656C50726F537465705D
:1035D8003A2000000000006508E511D2084408B848
:1035E80008B708000000006810E511BD0FD60FC825
:1035F8000F47100D0A006E616E00696E66006F76E7
:0436080066002E002A
:00000001FF
