:1000000022C100000C94D00B0C94FB0B0C94260C1A
:100010000C94510C0C947C0C0C94A70C0C94D20CEA
:100020000C94FD0C0C948D080C948D080C948D0888
:100030003BC1000039C1000037C1000035C10000DC
:1000400033C10000E6C200002FC100002DC1000036
:100050002BC1000029C1000027C100000C94280D0D
:1000600023C100000C9491100C94C7101DC1000016
:100070001BC1000019C1000017C1000015C100001C
:10008000F5C2000011C100000FC100000C943F0A2E
:100090000BC1000009C1000007C1000005C100003C
:1000A00003C1000001C100000EC30000FDC000003C
:1000B000FBC00000F9C00000F7C0000031C3000021
:1000C000F3C00000F1C00000EFC00000EDC0000070
:1000D000EBC00000E9C00000E7C00000E5C0000080
:1000E000E3C00000830B4D0B550B610B6E0B8F0BA8
:1000F0009C0BC00BB60BB80BBA0BBC0BC20BC40BE2
:10010000510E540E430E470E4D0E8B0E580E5C0EC4
:10011000620E660E6A0E700E740E780E8B0E7E0ED8
:10012000820E860E00000A0B02090C0D0E08070352
:1001300004010000000000000000000000000000BA
:1001400000000000000000000000000000000000AF
:10015000121110000000000000000000000000006C
:100160000000000000000000000001021020200834
:100170000810204010204080020102010804020102
:100180000102040810204080804020100804020171
:1001900080040201804020100804020108040201CA
:1001A0000102040810204080010204081020408051
:1001B00005050505070508080808020202020A0AE3
:1001C0000808040404040101010101010101030301
:1001D000030303030303040707070C0C0C0C0C0CAC
:1001E0000C0C0202020206060606060606060B0BA9
:1001F0000B0B0B0B0B0B000020002300260029002B
:100200002C002F003200000100000301060109014B
:1002100000002200250028002B002E0031003400B1
:1002200002010000050108010B010000210024006B
:1002300027002A002D0030003300010100000401D6
:1002400007010A01F91011241FBECFEFD1E2DEBF72
:10025000CDBF00E00CBF12E0A0E0B2E0ECE9FEE2AE
:1002600000E00BBF02C007900D92AC33B107D9F785
:1002700024E0ACE3B2E001C01D92A935B207E1F77A
:1002800012E0C6E4D2E000E006C022970109FE01B8
:100290000BBF0E949214C434D10780E00807A9F76D
:1002A0000E943D110C944C17ABCECF93DF9310926C
:1002B0005F0310925E0381E090E09093610380936E
:1002C000600310923D0210923C02D6D360E080E0C1
:1002D0000E948C0E61E086E10E948C0E61E088E154
:1002E0000E948C0E61E08AE10E948C0E61E085E044
:1002F0000E948C0E61E084E00E948C0E61E082E03E
:100300000E948C0E61E085E20E948C0E8FE190E0ED
:100310000E944911EC0120E04BE06AE0CAD7D0937B
:100320005003C0934F0340E056E960E070E0CE0117
:10033000EED726E040E855E260E070E088EB93E01D
:10034000DF91CF910C9431100F931F93CF93DF93D4
:1003500000D0CDB7DEB780913C0290913D02A1D58F
:1003600080913C0290913D0282309105D9F144F494
:10037000009781F0019709F083C002E010E024C0EB
:100380008430910509F470C00CF44DC0059709F450
:100390006BC076C068EE73E080E090E00E94950D3F
:1003A00080E00E94FA0E8130910511F082E090E029
:1003B00090936103809360035DC0DFD3882321F0B5
:1003C00010933D0200933C0280914F0390915003A3
:1003D000DC01ED91FC910480F581E02D1995892BCC
:1003E00061F74EC00091640310916503011511057A
:1003F00081F0F801208131814281538164817581CE
:1004000086819781C8D4D80118960D911C911997AF
:10041000EDCF80916303882319F083E090E02CC036
:1004200084E090E029C0CE010196A7D165E270E09A
:10043000CE0101966DD204EB10E0B801CE01019619
:10044000ADD26FE070E080E090E00E94950D015029
:1004500011090A35110589F7CE0101965ED268EEC1
:1004600073E080E090E004C068E873E180E090E031
:100470000E94950D81E090E090933D0280933C02B4
:100480000F900F900F90DF91CF911F910F910895D2
:10049000CF92DF92EF92FF920F931F93CF93DF9350
:1004A0006C018B017A01EC01C15CDD4F888187FF13
:1004B00004C0FB011182108223C02CE02C9DC001DE
:1004C0002D9D900D11242881AC01420F511D27FD57
:1004D0005A9520913E0230E0421753078CF4288150
:1004E000AC01420F511D27FD5A959A01FA01EE0FFA
:1004F000FF1FE20FF31FED5BFD4F208126FD19C0AA
:1005000088818F5F88838CE08C9D90018D9D300D5C
:1005100011248881A901480F511D87FD5A958091AA
:100520003E0290E048175907B4F488818C303CF1C2
:1005300012C02881820F911D27FD9A95FC01EE0FB4
:10054000FF1FE80FF91FED5BFD4F808160E08F73A7
:100550000E94C50ED5CFF801808191810496803428
:100560009C4918F480E49CE904C0F80180819181E1
:100570000496F701918380838FEF888341C0F8014F
:10058000808191814881B901640F711D47FD7A9581
:10059000AB01FB01EE0FFF1FE40FF51FED5BFD4FFD
:1005A00041815281840F951FF70191838083888157
:1005B000A901480F511D87FD5A95FA01EE0FFF1F43
:1005C000E40FF51FED5BFD4F808186FF19C0888128
:1005D000280F311D87FD3A95F901EE0FFF1FE20F3D
:1005E000F31FED5BFD4F808161E08F73DF91CF9151
:1005F0001F910F91FF90EF90DF90CF900C94C50E5C
:10060000DF91CF911F910F91FF90EF90DF90CF90EE
:1006100008951F920F920FB60F9211240BB60F92EE
:100620002F933F934F935F936F937F938F939F93FA
:10063000AF93BF93EF93FF9348E850E064E870E016
:1006400081E090E025DFFF91EF91BF91AF919F9105
:100650008F917F916F915F914F913F912F910F906B
:100660000BBE0F900FBE0F901F9018951F920F9208
:100670000FB60F9211240BB60F922F933F934F9307
:100680005F936F937F938F939F93AF93BF93EF93FA
:10069000FF9348E950E064E970E082E090E0F8DE22
:1006A000FF91EF91BF91AF919F918F917F916F914A
:1006B0005F914F913F912F910F900BBE0F900FBE06
:1006C0000F901F9018951F920F920FB60F92112442
:1006D0000BB60F922F933F934F935F936F937F933C
:1006E0008F939F93AF93BF93EF93FF9348EA50E0AC
:1006F00064EA70E083E090E0CBDEFF91EF91BF9180
:10070000AF919F918F917F916F915F914F913F91A9
:100710002F910F900BBE0F900FBE0F901F9018954A
:100720001F920F920FB60F9211240BB60F922F93B8
:100730003F934F935F936F937F938F939F93AF9369
:10074000BF93EF93FF9348E251E064E271E080E0F1
:1007500090E09EDEFF91EF91BF91AF919F918F91BD
:100760007F916F915F914F913F912F910F900BBEB1
:100770000F900FBE0F901F90189520913E022033CE
:10078000A0F431E0320F30933E02FC012083822F2F
:1007900090E0FC01EE0FFF1FE80FF91FED5BFD4F2E
:1007A00088EB9BE09283818308952FEFFC012083E7
:1007B0000895DF92EF92FF920F931F93CF93DF93F1
:1007C000EC01D62E7A0189018881803308F068C057
:1007D00061E08D2D0E948C0E8881A82FB0E0FD0174
:1007E000EE0FFF1FEA0FFB1FED5BFD4F2D2D2F734B
:1007F0009081907C922B908360E272E06E197F0969
:1008000077FF02C06D5F7F4F75956795759567950A
:10081000698340E659E0401B510B57FF02C04D5F12
:100820005F4F55954795559547954A836CE00E94D3
:100830001F149CE0899FB001112420E030E0A90141
:10084000460F571FFA01EE0FFF1FE40FF51FED5B78
:10085000FD4F908196FD18C02F5F3F4F2C30310522
:1008600071F790E08130910521F51092800082E0CF
:10087000809381001092850010928400B19A80913B
:100880006F00826080936F00888190E0FC01EE0F22
:10089000FF1FE80FF91FED5BFD4F808180648083AF
:1008A0008881DF91CF911F910F91FF90EF90DF90A2
:1008B00008958230910569F41092900082E080934F
:1008C0009100109295001092940088BB8093710063
:1008D000DBCF8330910569F41092A00082E0809311
:1008E000A1001092A5001092A40089BB8093720011
:1008F000CBCF892B49F61092200182E08093210111
:1009000010922501109224018ABB80937300BCCF02
:1009100020E639E040E252E04CCFFC01808190E0DB
:10092000FC01EE0FFF1FE80FF91FED5BFD4F80810B
:100930008F7B80830895FC018081803370F59181E5
:1009400028E830E0291B310997FD3395220F331F2A
:10095000220F331F621773077CF0928128E532E083
:10096000291B310997FD3395220F331F220F331FA7
:10097000621773070CF49B0122503109220F331FB9
:100980004FB7F89490E0FC01EE0FFF1FE80FF91F3E
:10099000ED5BFD4F328321834FBF08954F925F92ED
:1009A0006F927F92AF92BF92CF92DF92EF92FF92BF
:1009B0000F931F93CF93DF93EC01603282E07807AF
:1009C0000CF040C077FD06C0653B71052CF064EB70
:1009D00070E002C060E070E0898128E830E0281B08
:1009E000310987FD3395220F331F220F331F590121
:1009F000CC24B7FCC094DC2C882777FD8095982FF9
:100A00002A8148E552E0421B510927FD5395440FC6
:100A1000551F440F551F2A01662457FC6094762CFD
:100A20007F926F925F924F9214EBE12EF12C00E0D7
:100A300010E020E030E0A9010E9472110F900F90A9
:100A40000F900F90CE01DF91CF911F910F91FF90EA
:100A5000EF90DF90CF90BF90AF907F906F905F90BE
:100A60004F9069CF80915E0390915F0301969093C0
:100A70005F0380935E03089584E591EDAAE9BFE3E7
:100A80008093550390935603A0935703B093580354
:100A900080E693EBA4E7BFE3809351039093520366
:100AA000A0935303B09354030895CF92DF92EF9233
:100AB000FF920F931F93CF93DF938C016B01E09014
:100AC0006403F0906503E114F10451F48AE090E0CE
:100AD0000E94B914EC0190936503809364030FC0E6
:100AE000F70180859185009711F07C01F9CF8AE0AC
:100AF00090E00E94B914EC01F70191878087B6015C
:100B0000882777FD8095982F0E945C136C837D83E6
:100B10008E839F83B801882777FD8095982F0E9448
:100B20005C13688379838A839B8319861886DF9197
:100B3000CF911F910F91FF90EF90DF90CF9008958C
:100B4000CF93DF938091640390916503FC0120852E
:100B50003185232B59F0FC01C085D185209721F0E8
:100B60000E945115CE01F7CF0E94511510926503D6
:100B700010926403DF91CF910895EF92FF920F934B
:100B80001F93CF93DF93CDB7DEB72C970FB6F894B2
:100B9000DEBF0FBECDBF6AE172E0CE0107960E94B4
:100BA0001E128091640390916503892B09F0C8DFC0
:100BB00080914F0390915003DC01ED91FC910680F0
:100BC000F781E02D19954AE0BC01CE0101960E9403
:100BD0008812BE016F5F7F4FCE0107960E94671299
:100BE000CE0101960E94B71100914D0310914E0362
:100BF000E0904B03F0904C03CE0107960E94B21296
:100C0000F801EE0FFF1FE00FF11FEE0DFF1DEE0FBD
:100C1000FF1FED52FD4F7183608380914D039091D2
:100C20004E0301968431910529F090934E038093F1
:100C30004D030DC010924E0310924D0380914B0353
:100C400090914C03019690934C0380934B038091B9
:100C50004B0390914C03039711F503ED12E0F8015B
:100C60006281738184819581681B790B8081918178
:100C70001CDF0A5F1F4FF3E00B341F0781F7109250
:100C80004E0310924D0310924C0310924B036AE1F5
:100C900072E0CE0107960E94721211E001C010E0CE
:100CA000CE0107960E94B711812F2C960FB6F894AB
:100CB000DEBF0FBECDBFDF91CF911F910F91FF908F
:100CC000EF900895CF92DF92EF92FF920F931F93D0
:100CD000CF93DF93EC0148E853E160E070E089E5F1
:100CE00093E05BD40FEF1FEF980140E052E065E026
:100CF00089E593E084D443E050E062E375E083E06B
:100D0000B7D410925F0310925E037E018FEFE81A52
:100D1000F80ACC24C394D12C80915E0390915F0398
:100D20008C179D0724F58AE090E036D780914F0319
:100D300090915003DC01ED91FC910480F581E02D50
:100D40001995892B49F30FEF1FEF980140E050E010
:100D500065E089E593E053D483E0FBD4F0925F0330
:100D6000E0925E03D0923D02C0923C02D5CF83E078
:100D7000F0D40FEF1FEF980140E050E065E089E507
:100D800093E03DD4DF91CF911F910F91FF90EF90B1
:100D9000DF90CF9008954F925F926F927F928F92E3
:100DA0009F92AF92BF92CF92DF92EF92FF926B0130
:100DB0007C01CA01B901209155033091560340913D
:100DC0005703509158030E94C1122B013C0120E0AF
:100DD00030E0A901C701B6010E940C14181624F0D6
:100DE000C701B601905802C0C701B6012091510356
:100DF0003091520340915303509154030E94C11209
:100E00004B015C0120E030E0A901C701B6010E945E
:100E10000C1418162CF460E084E0B7D761E00DC024
:100E200020E030E0A901C701B6010E94BD1287FF92
:100E300011C061E084E0A9D760E082E0A6D7C501D7
:100E4000B4010E942913CB013DDF64E670E080E02D
:100E500090E06BD661E084E098D761E082E095D7BE
:100E6000C301B2010E942913CB012CDF64E670E0BC
:100E700080E090E05AD681E020913C0230913D0222
:100E80002130310509F480E0FF90EF90DF90CF90A2
:100E9000BF90AF909F908F907F906F905F904F909A
:100EA0000895CF93DF93EC0160E086E16ED760E0B8
:100EB00088E16BD760E08AE168D7C230D105E1F004
:100EC0004CF4209771F0219709F03FC061E086E172
:100ED0005CD70DC0C430D10551F05CF0259779F096
:100EE00034C061E086E151D761E088E104C061E08F
:100EF0002AC061E086E149D761E08AE128C061E06B
:100F000086E143D780916203882379F064EF71E032
:100F100080E090E00AD660E086E137D764EF71E0C8
:100F200080E090E0DF91CF9100C664EF71E080E057
:100F300090E0FBD561E088E128D764EF71E080E0C4
:100F400090E0F3D560E088E102C060E086E1DF91E7
:100F5000CF911BC72091A8033091A9032817390707
:100F6000B9F49091660380916703981789F0E09136
:100F70006603F0E0E859FC4F80812091660330E081
:100F80002F5F3F4F2F7333272093660390E0089520
:100F90008FEF9FEF08951F93CF93DF93DC015C9653
:100FA0008D919C915D97009749F481E090E01396B4
:100FB0009C938E93129780E090E03BC05196ED9108
:100FC000FC91529750962C915097322F30951FB725
:100FD0005E964C915E9741FB772770F941FD6095D5
:100FE000F8944081772311F0422B01C043234083C2
:100FF000EC012197F1F748E0508160FF02C0522BCD
:1010000001C053235083EC012197F1F766954150BD
:1010100099F78081772311F0832301C0822B80838D
:101020001FBF5C968D919C915D970197F1F781E0D0
:1010300090E0DF91CF911F91089508952091A8032A
:101040003091A9032817390781F4909166038091A4
:101050006703981751F0E0916603F0E0E859FC4F00
:101060008081992787FD909508958FEF9FEF0895D0
:101070002091A8033091A9032817390769F48091BA
:1010800067032091660390E0805C9F4F821B91096B
:1010900060E470E00C942B1480E090E00895E091FF
:1010A000A803F091A903E817F90769F4A389B489A3
:1010B0009C918589809589238C931092A903109225
:1010C000A80381E0089580E00895CF93DF93EC01B9
:1010D0008A8D9B8D892BE9F08091A8039091A903BB
:1010E0008C179D07B1F0009709F0D9DF8E8D8E7FA8
:1010F0008E8F1092670310926603D093A903C0935A
:10110000A803EB89FC8980819D89892B808381E0FC
:1011100001C080E0DF91CF9108951F920F920FB62A
:101120000F9211240BB60F922F933F934F935F931F
:101130006F937F938F939F93AF93BF93EF93FF939F
:10114000E091A803F091A903309709F451C0868D6E
:10115000A685B785958581FF04C08C91892329F4E4
:1011600047C08C91892309F043C0A389B4899C911D
:101170008589809589238C93868997890197F1F7D2
:10118000208D318DA685B785758558E040E0C90171
:101190000197F1F7842F90E095958795482F6C91F2
:1011A000672309F04068515091F7868D81FD409585
:1011B0008091670390E001968F73992720916603D1
:1011C000281749F0A0916703B0E0A859BC4F4C9391
:1011D0008093670303C0868D8160868F828D938D97
:1011E0000197F1F7A389B4898C919589892B8C9308
:1011F000FF91EF91BF91AF919F918F917F916F91EF
:101200005F914F913F912F910F900BBE0F900FBEAA
:101210000F901F9018951F93CF93DF93EC01162F1B
:101220006E8D6695617081E06827812FAED561E093
:10123000812F72D5812F90E0FC01E659FE4FE49199
:10124000E88BFC01E055FE4FE491F0E0EE0FFF1F4C
:10125000E05FFD4F859194919A8B898BDF91CF91BF
:101260001F9108951F93CF93DF93EC01162F60E039
:10127000812F52D58E8D81FD03C061E0812F85D5F0
:101280001C87812F90E0FC01E659FE4FE491ED8729
:10129000FC01E055FE4FE491F0E0EE0FFF1FEA5035
:1012A000FE4F859194919F878E87DF91CF911F91FB
:1012B0000895FF920F931F93CF93DF93EC01F62EC7
:1012C000522F1B821A8208EE13E020E030E00C83DC
:1012D0001D832E833F838FE192E0998388831F8A49
:1012E0001E8A198E188E1B8E1A8E1D8E1C8E8E8D48
:1012F0008E7F50FB81F98E8F642FCE018CDF6F2D96
:10130000CE01DF91CF911F910F91FF90ABCF0F9343
:101310001F93CF93DF93EC019A01AB011B8E1A8EC2
:10132000198E188E1F8A1E8A60E079E08DE390E0A6
:101330000E946014C9012430310520F0B9016350C6
:10134000710902C061E070E07D8F6C8F1C8506EF33
:10135000010F043048F06EEC610F643028F062EC4D
:10136000610F683008F07DC0B901769567956431EA
:10137000710518F06351710902C061E070E07F8B64
:101380006E8B069718F0C901059702C081E090E0C6
:10139000998F888FC901880F991F820F931F969587
:1013A0008795969587958D30910510F00C9702C022
:1013B00081E090E09B8F8A8F043060F08EEC810F8B
:1013C000843040F082EC810F883008F050C0A8E6ED
:1013D000B0E04FC0A8E6B0E0E8E6F0E0908104306D
:1013E00028F01E53183010F484E001C081E0892BEE
:1013F0008C932C8536EF320F343058F08EEC820F00
:10140000843038F082EC820F883030F48DE690E042
:1014100005C08BE690E002C080E090E09C8B8B8B57
:10142000343010F426500BC0223379F0233379F096
:10143000243379F082EC820F883068F4282F81E021
:1014400001C0880F2A95EAF707C088E005C084E04C
:1014500003C082E001C081E08D8B8C8D9D8D019752
:10146000F1F7CE01DF91CF911F910F912ECEA0E029
:10147000B0E0883008F4B0CFE0E0F0E0AFCF1F92EA
:101480000F920FB60F9211240BB60F922F933F932A
:101490004F935F936F937F938F939F93AF93BF937C
:1014A000EF93FF93E091AD03F091AE031995FF9197
:1014B000EF91BF91AF919F918F917F916F915F91CC
:1014C0004F913F912F910F900BBE0F900FBE0F9039
:1014D0001F901895FC01A3E0440F551F661F771F4E
:1014E000AA95D1F74115510581E06807710514F4FB
:1014F00081E00EC033E075956795579547953A950D
:10150000D1F74115510581E0680771051CF482E0AF
:10151000828331C023E075956795579547952A9545
:10152000D1F74115510581E06807710514F483E096
:10153000EFCF92E075956795579547959A95D1F7B6
:101540004115510581E06807710514F484E0E0CF8E
:1015500082E075956795579547958A95D1F785E00F
:1015600082834115510581E06807710524F04FEF32
:101570005FEF60E070E051834083509397004093A9
:10158000960080919100887F8093910080919100D6
:101590009281892B8093910008951092900020E110
:1015A0002093910097CFE62FDC012D913C91DA0139
:1015B0000E948214BAE09695879577956795BA95BB
:1015C000D1F7E53029F4709399006093980008955D
:1015D000E23029F470939B0060939A000895E33001
:1015E00021F470939D0060939C000895E1E9F0E080
:1015F0002081DC0112968C91282B20830895DF92A4
:10160000EF92FF920F931F93CF93DF93EC01D62EAF
:101610007A0110161106120613061CF4B901A8016E
:1016200059DF85E0D81205C06B9A809190008068E0
:101630000FC082E0D81205C06C9A80919000806241
:1016400007C083E0D81206C06D9A80919000886030
:1016500080939000A7016D2DCE01A5DFCE01DF9113
:10166000CF911F910F91FF90EF90DF90BFCF089522
:10167000883008F06DC0E82FF0E0EE0FFF1FE65F46
:10168000FD4F7183608390E0FC013197E730F105F5
:1016900090F5EE58FF4F0C947C14809169008C7F7C
:1016A000842B80936900E89A089580916900440F23
:1016B000551F440F551F837F842B80936900E99A3F
:1016C00008958091690074E0440F551F7A95E1F701
:1016D0008F7C842B80936900EA9A08958091690039
:1016E00066E0440F551F6A95E1F78F73842B809352
:1016F0006900EB9A089580916A008C7F842B809317
:101700006A00EC9A089580916A00440F551F440FB7
:10171000551F837F842B80936A00ED9A08958091F2
:101720006A0024E0440F551F2A95E1F78F7C842B33
:1017300080936A00EE9A089580916A0096E0440FC3
:10174000551F9A95E1F78F73842B80936A00EF9A67
:101750000895883020F5482F50E0FA013197E7309E
:10176000F10560F4E758FF4F0C947C14E8980DC025
:10177000E9980BC0EA9809C0EB9807C0EC9805C03F
:10178000ED9803C0EE9801C0EF98E82FF0E0EE0F5F
:10179000FF1FE65FFD4F87E39BE091838083089501
:1017A0001F920F920FB60F9211240BB60F922F9328
:1017B0003F934F935F936F937F938F939F93AF93D9
:1017C000BF93EF93FF93E0910E02F0910F021995F2
:1017D000FF91EF91BF91AF919F918F917F916F9109
:1017E0005F914F913F912F910F900BBE0F900FBEC5
:1017F0000F901F9018951F920F920FB60F92112401
:101800000BB60F922F933F934F935F936F937F93FA
:101810008F939F93AF93BF93EF93FF93E091100249
:10182000F09111021995FF91EF91BF91AF919F91A6
:101830008F917F916F915F914F913F912F910F9079
:101840000BBE0F900FBE0F901F9018951F920F9216
:101850000FB60F9211240BB60F922F933F934F9315
:101860005F936F937F938F939F93AF93BF93EF9308
:10187000FF93E0911202F09113021995FF91EF91FD
:10188000BF91AF919F918F917F916F915F914F9198
:101890003F912F910F900BBE0F900FBE0F901F9096
:1018A00018951F920F920FB60F9211240BB60F923C
:1018B0002F933F934F935F936F937F938F939F9358
:1018C000AF93BF93EF93FF93E0911402F091150251
:1018D0001995FF91EF91BF91AF919F918F917F915A
:1018E0006F915F914F913F912F910F900BBE0F9091
:1018F0000FBE0F901F9018951F920F920FB60F9268
:1019000011240BB60F922F933F934F935F936F93D6
:101910007F938F939F93AF93BF93EF93FF93E09148
:101920000A02F0910B021995FF91EF91BF91AF91CF
:101930009F918F917F916F915F914F913F912F91E7
:101940000F900BBE0F900FBE0F901F9018951F9217
:101950000F920FB60F9211240BB60F922F933F9355
:101960004F935F936F937F938F939F93AF93BF93A7
:10197000EF93FF93E0910C02F0910D021995FF9106
:10198000EF91BF91AF919F918F917F916F915F91F7
:101990004F913F912F910F900BBE0F900FBE0F9064
:1019A0001F9018951F920F920FB60F9211240BB62D
:1019B0000F922F933F934F935F936F937F938F93E8
:1019C0009F93AF93BF93EF93FF93E0911602F09133
:1019D00017021995FF91EF91BF91AF919F918F9150
:1019E0007F916F915F914F913F912F910F900BBE1F
:1019F0000F900FBE0F901F9018951F920F920FB669
:101A00000F9211240BB60F922F933F934F935F9336
:101A10006F937F938F939F93AF93BF93EF93FF93B6
:101A2000E0911802F09119021995FF91EF91BF9181
:101A3000AF919F918F917F916F915F914F913F9166
:101A40002F910F900BBE0F900FBE0F901F90189507
:101A50001F920F920FB60F9211242F933F938F93E3
:101A60009F93AF93BF938091B0039091B103A091E6
:101A7000B203B091B3033091AF0323E0230F2D37AE
:101A800020F40196A11DB11D05C026E8230F029682
:101A9000A11DB11D2093AF038093B0039093B103B8
:101AA000A093B203B093B3038091B4039091B503B4
:101AB000A091B603B091B7030196A11DB11D80930B
:101AC000B4039093B503A093B603B093B703BF914B
:101AD000AF919F918F913F912F910F900FBE0F90DB
:101AE0001F9018953FB7F8948091B4039091B50377
:101AF000A091B603B091B70326B5A89B05C02F3FB0
:101B000019F00196A11DB11D3FBF6627782F892FBF
:101B10009A2F620F711D811D911D42E0660F771F84
:101B2000881F991F4A95D1F708958F929F92AF927F
:101B3000BF92CF92DF92EF92FF926B017C01D2DFD6
:101B40004B015C01C114D104E104F104E1F014D5AE
:101B5000C9DF681979098A099B09683E73408105C4
:101B6000910580F321E0C21AD108E108F10888EE5E
:101B7000880E83E0981EA11CB11CC114D104E1049D
:101B8000F10431F7DFCFFF90EF90DF90CF90BF905F
:101B9000AF909F908F9008958230910538F0880F14
:101BA000991F880F991F05970197F1F70895789469
:101BB00084B5826084BD84B5816084BD85B5826052
:101BC00085BD85B5816085BDEEE6F0E080818160F0
:101BD0008083E1E8F0E010828081826080838081F0
:101BE00081608083E0E8F0E0808181608083E1EBC8
:101BF000F0E0808184608083E0EBF0E080818160B0
:101C00008083E1E9F0E0808182608083808181606F
:101C10008083E0E9F0E0808181608083E1EAF0E0A8
:101C2000808182608083808181608083E0EAF0E04F
:101C3000808181608083E1E2F1E080818260808345
:101C4000808181608083E0E2F1E080818160808337
:101C5000EAE7F0E080818460808380818260808315
:101C60008081816080838081806880831092C10040
:101C7000089590E0FC013197E231F10508F04BC086
:101C8000E058FF4F39C6809180008F7703C0809164
:101C900080008F7D80938000089580918000877FF1
:101CA000F9CF84B58F7702C084B58F7D84BD089548
:101CB0008091B0008F7703C08091B0008F7D8093BA
:101CC000B0000895809190008F7707C080919000B8
:101CD0008F7D03C080919000877F8093900008954E
:101CE0008091A0008F7707C08091A0008F7D03C0F6
:101CF0008091A000877F8093A000089580912001AB
:101D00008F7707C0809120018F7D03C080912001D3
:101D1000877F809320010895CF93DF9390E0FC01AB
:101D2000E659FE4F2491FC01E055FE4F8491882333
:101D300049F190E0880F991FFC01E65DFD4FA591E8
:101D4000B491805F9D4FFC01C591D4919FB7611103
:101D500008C0F8948C91209582238C9388818223EB
:101D60000AC0623051F4F8948C91322F309583235D
:101D70008C938881822B888304C0F8948C91822B69
:101D80008C939FBFDF91CF9108950F931F93CF93B3
:101D9000DF931F92CDB7DEB7282F30E0F901EC5D5D
:101DA000FE4F8491F901E659FE4F1491F901E05577
:101DB000FE4F04910023C1F0882319F0698359DF95
:101DC0006981E02FF0E0EE0FFF1FE05FFD4FA5916E
:101DD000B4919FB7F8948C91611103C01095812341
:101DE00001C0812B8C939FBF0F90DF91CF911F91EA
:101DF0000F910895CF93DF93282F30E0F901EC5D28
:101E0000FE4F8491F901E659FE4FD491F901E05556
:101E1000FE4FC491CC2389F081112BDFEC2FF0E031
:101E2000EE0FFF1FEA50FE4FA591B4912C912D2388
:101E300081E090E021F480E002C080E090E0DF915A
:101E4000CF910895FC01818D228D90E0805C9F4FA1
:101E5000821B91098F7399270895FC01918D828DC2
:101E6000981731F0828DE80FF11D858D90E008956F
:101E70008FEF9FEF0895FC01918D828D981761F08F
:101E8000828DDF01A80FB11D5D968C91928D9F5FB1
:101E90009F73928F90E008958FEF9FEF089580EFEA
:101EA00090E1892B39F080E090E0892B19F098D1EE
:101EB000811125C080E090E0892B41F080E090E026
:101EC000892B21F00E94000081111CC080E090E06D
:101ED000892B41F080E090E0892B21F00E940000E6
:101EE000811113C080E090E0892BA1F080E090E0A8
:101EF000892B81F00E94000081110AC008950E9480
:101F00000000D8CF0E940000E1CF0E940000EACF7D
:101F10000C9400000895FC01848DDF01A80FB11D11
:101F2000A35ABF4F2C91848D90E001968F7399270F
:101F3000848FA689B7892C93A089B1898C918064FC
:101F40008C93938D848D981306C00288F389E02DBD
:101F500080818F7D80830895CF93DF93EC01888DFE
:101F60008823C1F0EA89FB89808185FD05C0A889A5
:101F7000B9898C9186FD0EC00FB607FCF5CF808124
:101F800085FFF2CFA889B9898C9185FFEDCFCE016D
:101F9000C2DFE8CFDF91CF910895CF92DF92FF9219
:101FA0000F931F93CF93DF931F92CDB7DEB76C01D2
:101FB00081E0D60158968C9358975B969C915B97DD
:101FC0005C968C915C97981307C05096ED91FC91AC
:101FD0005197808185FD2DC0F601038D10E00F5FC4
:101FE0001F4F0F731127F02EF601848DF81210C0C9
:101FF0000FB607FCF9CFD6015096ED91FC915197A1
:10200000808185FFF1CFC601698385DF6981ECCFCF
:10201000838DE80FF11DE35AFF4F6083D6015B9675
:102020000C935B975296ED91FC915397808180625F
:102030000CC0D6015696ED91FC915797608350964F
:10204000ED91FC91519780818064808381E090E0E4
:102050000F90DF91CF911F910F91FF90DF90CF9064
:102060000895BF92CF92DF92EF92FF92CF93DF93CA
:10207000EC016A017B01B22EE889F98982E0808354
:10208000411581EE58076105710599F060E079E02E
:102090008DE390E0A7019601F1D321503109410968
:1020A00051095695479537952795211580E13807B1
:1020B00090F0E889F989108260E874E88EE190E098
:1020C000A7019601DBD321503109410951095695E9
:1020D000479537952795EC85FD853083EE85FF85FF
:1020E0002083188EEC89FD89B082EA89FB89808182
:1020F00080618083EA89FB89808188608083EA89A6
:10210000FB89808180688083EA89FB8980818F7D5B
:102110008083DF91CF91FF90EF90DF90CF90BF90C1
:1021200008951F920F920FB60F9211240BB60F92C3
:102130002F938F939F93EF93FF93E091C803F091B8
:10214000C9038081E091CE03F091CF0382FD12C0DC
:1021500090818091D1038F5F8F732091D20382177A
:1021600051F0E091D103F0E0E854FC4F958F80935B
:10217000D10301C08081FF91EF919F918F912F91A9
:102180000F900BBE0F900FBE0F901F9018951F92CF
:102190000F920FB60F9211240BB60F922F933F930D
:1021A0004F935F936F937F938F939F93AF93BF935F
:1021B000EF93FF9388EB93E0AEDEFF91EF91BF9139
:1021C000AF919F918F917F916F915F914F913F91CF
:1021D0002F910F900BBE0F900FBE0F901F90189570
:1021E00088EB93E02FDE21E0892B09F420E0822F99
:1021F00008951092BB031092BA0388EE93E0A0E01A
:10220000B0E08093BC039093BD03A093BE03B09352
:10221000BF038FE292E09093B9038093B80385ECFB
:1022200090E09093C5038093C40384EC90E0909376
:10223000C7038093C60380EC90E09093C90380931A
:10224000C80381EC90E09093CB038093CA0382ECA7
:1022500090E09093CD038093CC0386EC90E0909334
:10226000CF038093CE031092D1031092D203109229
:10227000D3031092D4030895089599DCFDDF0E94E2
:102280005501CFE4DFE00E94A4012097E1F307DECF
:10229000FACF6FC3CF92DF92EF92FF920F931F930B
:1022A000CF93DF937C016A01EB0100E010E00C1595
:1022B0001D0571F06991D701ED91FC910190F081BC
:1022C000E02DC7011995892B19F00F5F1F4FEFCF34
:1022D000C801DF91CF911F910F91FF90EF90DF9098
:1022E000CF9008954F925F926F927F92AF92BF927C
:1022F000CF92DF92EF92FF920F931F93CF93DF93D2
:10230000CDB7DEB729013A01621B730B840B950B25
:102310002A893B894C895D892A193B094C095D0949
:102320002A8B3B8B4C8B5D8B9B01AC016A897B8933
:102330008C899D8975D2E418F50806091709A8014A
:102340009701BED22A0D3B1D4C1D5D1DCA01B9016E
:10235000DF91CF911F910F91FF90EF90DF90CF9081
:10236000BF90AF907F906F905F904F900895FC0169
:102370008081918196C3CF93DF93EC01888199810D
:10238000009709F08ED3198218821D821C821B824D
:102390001A82DF91CF9108950F931F93CF93DF930C
:1023A000EC018B016F5F7F4F8881998109D4009781
:1023B00031F0998388831B830A8381E001C080E028
:1023C000DF91CF911F910F910895CF93DF93EC018F
:1023D00088819981892B29F08A819B8186179707AB
:1023E00058F4CE01D9DF882341F08C819D81892B5F
:1023F00019F4E881F981108281E0DF91CF9108958D
:10240000EF92FF920F931F93CF93DF93EC017B0129
:102410008A01BA01DADF811103C0CE01ACDF06C048
:102420001D830C83B70188819981DDD4CE01DF91B2
:10243000CF911F910F91FF90EF900895FC011182B1
:10244000108213821282158214826115710551F077
:10245000FB0101900020E9F7AF0141505109461BF3
:10246000570BCECF08950F931F93CF93DF938C011B
:10247000EB01FC0180819181009789F042815381B9
:102480002C813D814217530748F068817981ABD494
:102490008C819D81F8019583848312C002D3888149
:1024A0009981F801918380838A819B8193838283C0
:1024B0008C819D8195838483198218821B821A8264
:1024C0001D821C82DF91CF911F910F910895CF93B0
:1024D000DF93EC018617970709F0C5DFCE01DF9186
:1024E000CF910895CF93DF93EC016115710559F0F9
:1024F000FB0101900020E9F7AF0141505109461B53
:10250000570B7EDF01C037DFCE01DF91CF910895F9
:102510000F931F93CF93DF93CDB7DEB762970FB6BC
:10252000F894DEBF0FBECDBF8C01CB01F801118244
:102530001082138212821582148250E0BE016F5FF6
:102540007F4F58D4BE016F5F7F4FC801CBDF6296CB
:102550000FB6F894DEBF0FBECDBFDF91CF911F91B4
:102560000F910895FC0180819181009709F00CC4BE
:1025700060E070E0CB0108950895D9D008F481E0BF
:1025800008950CD00FC107D140F0FED030F021F4F7
:102590005F3F19F0F0C0511139C1F3C014D198F365
:1025A0009923C9F35523B1F3951B550BBB27AA27D4
:1025B00062177307840738F09F5F5F4F220F331F46
:1025C000441FAA1FA9F333D00E2E3AF0E0E830D012
:1025D00091505040E695001CCAF729D0FE2F27D015
:1025E000660F771F881FBB1F261737074807AB07E3
:1025F000B0E809F0BB0B802DBF01FF2793585F4F58
:102600002AF09E3F510568F0B6C000C15F3FECF371
:10261000983EDCF3869577956795B795F7959F5F1C
:10262000C9F7880F911D9695879597F90895E1E070
:10263000660F771F881FBB1F621773078407BA07CF
:1026400020F0621B730B840BBA0BEE1F88F7E0952A
:10265000089504D06894B111D9C00895BCD088F011
:102660009F5790F0B92F9927B751A0F0D1F0660F7E
:10267000771F881F991F1AF0BA95C9F712C0B13099
:1026800081F0C3D0B1E00895C0C0672F782F8827AC
:10269000B85F39F0B93FCCF3869577956795B395D8
:1026A000D9F73EF490958095709561957F4F8F4F47
:1026B0009F4F0895E89409C097FB3EF4909580954C
:1026C000709561957F4F8F4F9F4F9923A9F0F92FF8
:1026D00096E9BB279395F695879577956795B79576
:1026E000F111F8CFFAF4BB0F11F460FF1BC06F5F5C
:1026F0007F4F8F4F9F4F16C0882311F096E911C06E
:10270000772321F09EE8872F762F05C0662371F08E
:1027100096E8862F70E060E02AF09A95660F771FA2
:10272000881FDAF7880F9695879597F90895990F7E
:102730000008550FAA0BE0E8FEEF16161706E8078B
:10274000F907C0F012161306E407F50798F0621BAC
:10275000730B840B950B39F40A2661F0232B242B81
:10276000252B21F408950A2609F4A140A6958FEFA0
:10277000811D811D089597F99F6780E870E060E0F2
:1027800008959FEF80EC089500240A94161617060A
:1027900018060906089500240A9412161306140652
:1027A00005060895092E0394000C11F4882352F0B5
:1027B000BB0F40F4BF2B11F460FF04C06F5F7F4F6D
:1027C0008F4F9F4F089557FD9058440F551F59F054
:1027D0005F3F71F04795880F97FB991F61F09F3F0E
:1027E00079F087950895121613061406551FF2CF37
:1027F0004695F1DF08C0161617061806991FF1CF87
:1028000086957105610508940895E894BB276627AD
:102810007727CB0197F908958ADF08F48FEF0895A1
:10282000DB018F939F9374D0BF91AF91A29F800DD6
:10283000911DA39F900DB29F900D11240895991B97
:1028400079E004C0991F961708F0961B881F7A95A7
:10285000C9F78095089597FB072E16F4009406D0CB
:1028600077FD08D063D007FC05D03EF490958195A4
:102870009F4F0895709561957F4F0895A1E21A2E9C
:10288000AA1BBB1BFD010DC0AA1FBB1FEE1FFF1F14
:10289000A217B307E407F50720F0A21BB30BE40B64
:1028A000F50B661F771F881F991F1A9469F76095AB
:1028B0007095809590959B01AC01BD01CF01089565
:1028C000052E97FB16F400940FD057FD05D0D6DFE8
:1028D00007FC02D046F408C05095409530952195EC
:1028E0003F4F4F4F5F4F089590958095709561953C
:1028F0007F4F8F4F9F4F0895EE0FFF1F0590F4916C
:10290000E02D199427D0B7FF0895821B930B0895EB
:1029100021D0A59F900DB49F900DA49F800D911D77
:10292000112408950790F691E02D1994AA1BBB1B62
:1029300051E107C0AA1FBB1FA617B70710F0A61BBF
:10294000B70B881F991F5A95A9F780959095BC01E0
:10295000CD010895A29FB001B39FC001A39F700D48
:10296000811D1124911DB29F700D811D1124911D97
:102970000895CF93DF938230910510F482E090E0C8
:10298000E0915704F091580420E030E0A0E0B0E07E
:10299000309739F14081518148175907B8F04817ED
:1029A000590771F482819381109729F013969C93B3
:1029B0008E9312972CC0909358048093570427C08D
:1029C0002115310531F04217530718F0A901DB0139
:1029D00001C0EF019A01BD01DF010280F381E02D0A
:1029E000D7CF21153105F9F0281B390B24303105DB
:1029F00080F48A819B816115710521F0FB0193832D
:102A0000828304C09093580480935704FE01329649
:102A100044C0FE01E20FF31F8193919322503109CC
:102A2000398328833AC02091550430915604232BD2
:102A300041F4209102023091030230935604209316
:102A4000550420910002309101022115310541F415
:102A50002DB73EB74091040250910502241B350B5F
:102A6000E0915504F0915604E217F307A0F42E1BF1
:102A70003F0B2817390778F0AC014E5F5F4F2417E2
:102A8000350748F04E0F5F1F50935604409355048E
:102A90008193919302C0E0E0F0E0CF01DF91CF910C
:102AA0000895CF93DF93009709F487C0FC01329714
:102AB00013821282C0915704D0915804209781F458
:102AC00020813181280F391F80915504909156043F
:102AD0008217930779F5F0935604E09355046DC07F
:102AE000DE0120E030E0AE17BF0750F412964D91A2
:102AF0005C9113979D014115510509F1DA01F3CF5E
:102B0000B383A28340815181840F951F8A179B074D
:102B100071F48D919C911197840F951F029691836A
:102B2000808312968D919C911397938382832115B4
:102B3000310529F4F0935804E09357043EC0D901BD
:102B40001396FC93EE9312974D915D91A40FB51FD0
:102B5000EA17FB0779F480819181840F951F029613
:102B6000D90111969C938E938281938113969C93A5
:102B70008E931297E0E0F0E08A819B81009719F034
:102B8000FE01EC01F9CFCE01029628813981820F36
:102B9000931F20915504309156042817390769F482
:102BA000309729F4109258041092570402C01382EF
:102BB0001282D0935604C0935504DF91CF910895AB
:102BC0006F927F928F929F92AF92BF92CF92DF923D
:102BD000EF92FF920F931F93CF93DF93EC01CB0102
:102BE000209779F4DF91CF911F910F91FF90EF9093
:102BF000DF90CF90BF90AF909F908F907F906F901D
:102C0000B8CEFE01E60FF71F9E0122503109E217F0
:102C1000F30708F4A8C0D9010D911C91119706176C
:102C20001707B0F00530110508F49BC0A801445007
:102C300051094617570708F494C002501109061BA2
:102C4000170B019311936D937C93CF012ADF89C0F9
:102C50005B01A01AB10A4E01800E911EA09157048B
:102C6000B0915804612C712C60E070E0109709F469
:102C700049C0A815B905C9F5ED90FC9011976701F9
:102C800042E0C40ED11CCA14DB0478F147018A1853
:102C90009B08640142E0C40ED11C1296BC901297AE
:102CA0001396AC91B5E0CB16D10440F0B282A38369
:102CB00091828082D9018D939C9309C00E5F1F4F32
:102CC0000E0D1F1DF90111830083EB2DFA2F6115E5
:102CD000710531F0DB011396FC93EE93129741C01E
:102CE000F0935804E09357043CC06D917C91119788
:102CF0006616770608F43B01BD0112960D90BC9153
:102D0000A02DB4CF609155047091560468157905D3
:102D1000E9F468167906D0F440910002509101025E
:102D20004115510541F44DB75EB7609104027091B1
:102D30000502461B570BE417F507A8F4F093560459
:102D4000E0935504F901918380830BC012DE7C016E
:102D5000009749F0A801BE013DD0CE01A2DEC70117
:102D600004C0CE0102C080E090E0DF91CF911F91BE
:102D70000F91FF90EF90DF90CF90BF90AF909F901A
:102D80008F907F906F9008951F93FC01992788275B
:102D9000BC01E89411911032E9F3193010F01E30A3
:102DA000C8F31B3249F01D3241F4689405C036D097
:102DB000610F711D811D911D119110531A30B8F3CF
:102DC0003EF490958095709561957F4F8F4F9F4F02
:102DD0001F910895FB01DC0102C001900D9241504A
:102DE0005040D8F70895FB01DC0101900D920020BE
:102DF000E1F708954532510518F4423008F004C057
:102E0000FB011082CB010895BB274A3031F499238E
:102E100022F4BDE2909581959F4F16C0592F482FFF
:102E2000372F262F660F771F881F991F660F771F72
:102E3000881F991F620F731F841F951F660F771FCE
:102E4000881F991F0895BB27FB015527AA27880FC4
:102E5000991FAA1FA41710F0A41B83955051B9F70E
:102E6000A05DAA3308F0A95DA193009779F7B1118D
:102E7000B1931192CB0100C0DC01FC01672F71916D
:102E80007723E1F7329704C07C916D937083629150
:0C2E9000AE17BF07C8F30895F894FFCFF9
:102E9C0000005904800001000000370B370B370B82
:102EAC00370B370B370B370B370B0000000000CB01
:102EBC00074A113808AA071E081D0800000000CD9B
:0C2ECC000F4A11220F3B0F2D0FAC0F001E
:00000001FF
